:020000040000fa
:080000001001040000000000e3
:020000040000fa
:100200002804040000000000540404000000000062
:10021000740e0400000000005802040000000000fa
:10022000af822100807922000001880000000000d8
:10023000050007000c000700103c02000000000051
:100240000040da000000fe004440a900c005200084
:100250000000e0000300320000002000a001880040
:100260004440a80000000600e09c2f000100200090
:100270001600370062004000e080480091018800cd
:100280009001ba0062004000e080480091018800bf
:100290009002ba0062004000e08048000002eb00db
:1002a0006028e10005003a008301e90007003300ff
:1002b000038009000059eb00040037006128e100c9
:1002c000010032000082eb00050007009101880068
:1002d0001001ba000200e000e6ff3a00000005004d
:1002e000910188008002780062004000e0804800b0
:1002f0003559ba008301e900080032002559ba00d7
:100300008301e900050032000400e000f4ff320040
:1003100015d9ba008301e900f1ff3a000000060098
:10032000889fbe008004780011a080000100780042
:100330000100e0000a003a00414021000414e200fc
:100340001c00320011007800908f54001400360019
:100350008080e8001100e000faff3a001500370045
:100360001100e0000600320011017800928f540065
:100370000b0036008280e8001100e000faff3a002e
:10038000100178004140210020a08000820f500021
:100390000800320011007800908f540002003e00e7
:1003a00001007800150037008080e800910f1100ef
:1003b000f8ff3a0038a08000890f54000100310096
:1003c0000904780008007800220207000001780084
:1003d0000000e00005003a000000eb00890f540027
:1003e000060032000804d100f3ff37000819780036
:1003f0000200780043000700cbff37004f04be0027
:1004000000000600881f7800630440000800a10077
:100410000001eb00800f540022003600e30f54006f
:1004200001003e004800200008007800bcff0700e3
:10043000800078000001eb000000e00019003200ad
:10044000100178009201780064805100880f5000fc
:100450000300310012009000800878000700370088
:1004600008004100800878001202900014009800f3
:100470001100780008885100080978009100780080
:100480000100e00004003200110090008180e800cb
:100490000000e00001003a008000eb0011a088009d
:1004a0000281e800020078004f0478000000060096
:1004b0000004780062a0800040a08000800f5100fe
:1004c0000a0031008200d0000200e80060a088002d
:1004d00050a08000610078000000010062a0800050
:1004e00040a08000800f5100f6ff390080342100c9
:1004f00050a088002002200040a08800080078005a
:10050000080707000000e000360032000081e90023
:1005100012027800e30f5200320036000408a300f4
:1005200030003a0021a080000100e000020032000b
:10053000810f5100030031000108780022a08800db
:100540001d00370081017800110090000000e000dc
:1005500008003200820f5000060031008001780050
:10056000100090000000e00002003200820f5000f6
:10057000faff39009300780001804100800f51009c
:1005800018003900820f500003003a0084894000af
:100590000301780008003700930090000100e0009c
:1005a0000300320004004100808f50000d0039002c
:1005b0001101980092019800920090000100e00063
:1005c000080032009201780003004100810f5000c2
:1005d00004003a000234ef0010894100100090003e
:1005e0001001980000000600ea874700889fbe00bf
:1005f0008a9fbe008c9fbe008e1f78008006780008
:1006000001067800820478000004780001003700b9
:100610000804e8001800fb00950107000000e00056
:10062000fbff3a0098407800d0c2b30080cf500062
:100630000400320000c0e900d0ef9f0080cf5000de
:1006400002003a00d1ef9f000804e8000900e00032
:1006500046003500e18f5400440032004002200083
:10066000808f540041003c000900e0000d00340080
:10067000f08f54001a003a0000c3b300984f1000e6
:1006800017003a009840900080c7b30080cf500018
:100690001200320080c5b30080cf500010003a0035
:1006a0000e00370000c3b300984f10000200320064
:1006b000a90020000a0037009840900080c7b300ce
:1006c00080cf5000040032008900200080c5b300b4
:1006d00080cf500002003a00090120000884e800a1
:1006e000d8b79f0000c3b300984f100002003a0033
:1006f000d84f1000feff32006055b80008077800a0
:100700000e003700fab79f008bbf9f0060272100c3
:1007100000425200c4ef9f006149b9000a00be00c8
:10072000b90807004fea97000401fb00cf91de00f3
:1007300000054100818549000804e8001800fb001d
:10074000530107008000780009017800602721002c
:1007500056010700000278000000e000e9ff3a00bf
:100760005fb09700880f500005003a000c00e000d1
:10077000010032000d0e78006000b800270037003d
:100780008e005400b0292100694078000000fb0071
:1007900000805000170033004240a9000f003c00c9
:1007a0004fe997000200fb00cf80de0000005500fb
:1007b00081805d00800f5500818f5d00070039004a
:1007c0006149b900650807007fb197008fb99700ac
:1007d000820f5000838f5800060032002002200054
:1007e00090a088000085eb008085eb00b3c2b300c9
:1007f000d3ef9f00d0c2b3005fea9700804f520052
:1008000002003a0060051500e0851d000c00e000c4
:1008100001003200080e78000a00be004f07780081
:100820004f06be004f05be004f04be00af00b10032
:1008300000000600800078001004e0000200320092
:100840005104e000feff3a00008050000000060066
:10085000889fbe00800478000100780002047800c0
:1008600089017800110020001f010700890078002d
:10087000880f5000010032008000eb00010078007a
:100880004f04be00000006000000fa004fb99700b8
:10089000e881570061212100804220006a010700a1
:1008a0000080fa0000000600881f7800020478002b
:1008b0001a020700080040004f04780000000600fc
:1008c0000000fa00881f7800000478003fb9970004
:1008d000ea81570080007800404520005a01070057
:1008e000800078000000e000020035000040eb00ce
:1008f00000f47800010078004f0478000080fa00ce
:100900000000060080017800000178001004e0007b
:10091000020032005204e000feff3a00114078006d
:10092000004978000004e0000400320051407800e3
:10093000006978000004e000fcff3a000300780042
:1009400000000600889fbe008a1f7800f09e80008d
:100950000000e0000100320000000100209f800044
:100960000000e0000100320000000100508b800018
:100970000000e0000100320000000100608b8000f8
:100980000000e0000100320000000100dc53e20042
:1009900028003a000005eb00d260260093012000f9
:1009a000009f8000119f800017080700f2352f007c
:1009b000e3c623000000410081804900009f8800b9
:1009c000119f88000a05e800e70f5500f2ff340088
:1009d0000005eb006454b800e01621000004440058
:1009e000d260260093012000009f8000119f8000ac
:1009f00005080700f2352f00e3c623000000410080
:100a000081804900009f8800119f8800008cbe00f3
:100a10000a05e800ff0f5500eeff3400548f8000f8
:100a2000658f8000348b8800458b880010c0b30030
:100a3000dcf3b700d260260093012000009f800005
:100a4000119f8000f0070700f2352f00e3c6230056
:100a50000000410081804900009f8800119f8800ac
:100a6000328b80007f0561006451b800e5162100db
:100a7000050141001202be00348b8800458b8800be
:100a80000089be00308b8000418b8000010078001f
:100a900000f0a1004f0578004f04be0000000600e2
:100aa000881f78008a9fbe000105b8000a00780000
:100ab00054fe0700000478000000e000030032004c
:100ac0000a0178008000eb009b0107000800780015
:100ad0004f05be004f0478000000060000017800ba
:100ae000314978003204e000fdff3a0000000600c2
:100af0000200fa00889fbe008a9fbe008c1f78000b
:100b00000005780081047800020678000100e0000a
:100b100001003a00ec8457000a0478000100370015
:100b20000804e8001800fb00510007000000e00086
:100b3000fbff3a0098407800d0c2b30080cf50004d
:100b400003003200bbc2b3008bcf500002003a005a
:100b5000814578000804e8000c0178000800be0018
:100b6000a1fe07000001be00990f540001003a00e9
:100b70008a0c7800990f550003003a00e00f5100ed
:100b8000e08f59000e003a00b0c2b30080cf55008c
:100b900003003a00e00f5100e08f590008003500d3
:100ba000d0c2b30080cf55000f003a0000002000f3
:100bb00001002800800f5100818f59000a00360083
:100bc0002002200090a088000200200003002800de
:100bd0006b40400080cf550008003200f2ff2f002c
:100be000f3ff270005003700d0c2b30080cf5500c7
:100bf00002003a0060011100e08119000200be000d
:100c00004f0678004f05be004f04be000080fa007a
:100c100000000600881f780000047800f09e800025
:100c20000000e0000100320000000100dc73ef0072
:100c3000209f80000000e000010032000000010061
:100c40006140b800009f8800119f88004f04780021
:100c5000000006000000e000030034003905070032
:100c6000e10f400001003a000000eb000000060028
:100c70006900e100040035006d00e100030034006c
:100c80000002b10001003200000005001000050064
:100c9000800078001104b100030035009101b1001b
:100ca00001003c000050a000000006000200e0002f
:100cb0000500320090cf1000040032000000e80070
:100cc0000201e900fbff3a000000eb000000060013
:100cd000a0a080000000e000010032000000010040
:100ce0002041210000000600e4874700889fbe00e5
:100cf0008a9fbe008c9fbe008e1f780081bf9f0020
:100d00008200780083047800000778000fb997000c
:100d10000116b8008c0578000001eb000c00e00023
:100d200042003200010178008fb997000300e00013
:100d30003e0032000c00e0002e003200c90090009e
:100d400069009000808f500004003900090078008d
:100d5000000107000000e0002600350019a8a300ec
:100d6000060032000b017800a10020000e00780080
:100d7000ceff070000057800010037000005eb00fa
:100d80000b0478000a00e000020032000e0055005b
:100d90000004e80069009000c901900003005000c1
:100da000880f5000020031000005eb0000047800bd
:100db000080178008e00780003007800d700070053
:100dc000080747008885550049009000080040004a
:100dd000c00498000a00e000040032000900780016
:100de000210107000000e00002003a000b00e000d3
:100df000d2ff3a0019b8a3000200320009007800bf
:100e00001901070000c02000190060000200320034
:100e100049009000e00498000b0056008fb997003d
:100e2000110009000380d80000017800020078005a
:100e30004f0778004f06be004f05be004f04be00ae
:100e40004f00b100000006006200fa00889fbe005b
:100e50008a9fbe000004be0002057800830078006f
:100e60006a8057003c010700f88f9f0089979f0018
:100e70000000eb00909f9f001a80fb008005fb00a4
:100e80000000ea00cf04de000904780050022000d0
:100e9000808f550001003a000904e9000800e000d5
:100ea0000c0034000f909700080178008a00780049
:100eb000ff8997000300010080979f008080eb006e
:100ec0000000e000900032001f98970008004000ea
:100ed000909f9f000905450050022000808f55001b
:100ee000040032000b00e000e3ff3a009f989700f7
:100ef000850037000000eb00f0979f00e0979f000f
:100f0000d0979f00c0979f00b0979f00a0979f0029
:100f1000b09f9f0009003700e03a21000080500098
:100f20000000d000413b210001004000bf98970025
:100f300090807000b19f9f000a05e8009a00fb00b6
:100f4000e03a210006010700800078000000e00080
:100f5000f1ff3a00a0c2b3009a4f10000e003a0011
:100f60003fb897000080e900b0bf9f0010007800f4
:100f7000a09f9f000000e00005003d000000ea0087
:100f8000a09f9f003f9897000020a000b09f9f0067
:100f90000a05e80011003700a19f9f000b003700f1
:100fa000af989700f0ff2700808f500006003200b6
:100fb0006a09b9001a00fb000200400001fd2f0081
:100fc00001004000a09f9f000a05e8001a00fb00f6
:100fd000eb0007000000e000f1ff3a00e0c2b300c0
:100fe0009a4f1000030032000080eb00809f9f00aa
:100ff0001c003700a0c2b300da4f100007003a000f
:101000003fb897000080e900b0bf9f001000780053
:10101000809f9f000a05e800120037000000eb00e7
:10102000809f9f000b0037008f989700f0ff2700ec
:10103000808f5000060032006a09b9001a00fb00d8
:101040000200400001fd2f0001004000809f9f0032
:101050000a05e8001a00fb00c90007000000e000d4
:10106000f1ff3a009a00fb0020422100bc0007007b
:101070008040eb000000e00001003200ba40780040
:10108000817f9f0080c6b30080cf500004003a00eb
:101090009acf100002003a00664050000700370067
:1010a0008f789700c0c6b30080cf500005003a008b
:1010b0009acf100003003a0065404000807f9f00f7
:1010c0000a05e800a0fb2f00008447003a01fb005e
:1010d00088017800ea80570060f92f000f00400077
:1010e000ad0007000000e00006003a00880078002c
:1010f00060f92f000f0040002d0207000000e00003
:101100005dff3d008080eb00010078004f05be00d0
:101110004f04be000080fa00000006008001780045
:101120000200e00003003200b15978000201e9003a
:10113000fdff3a0000000600800178000200e00098
:1011400003003200815978000201e900fdff3a00f6
:1011500000000600889fbe0000047800c0019000d7
:10116000600090008000eb00808f51003b00390050
:10117000180178002000290000006100e20f5000f3
:1011800009003200020078000090a0000200e00098
:10119000020035000020240000007100000c7800df
:1011a0008080eb002d003700010026000100610067
:1011b000810f500008003a0038009000808f5100e5
:1011c0000500390008007800270007008080eb0048
:1011d0000000e00021003a0000c02000180060007c
:1011e00017003a006002200008004000a8049000a8
:1011f000808f540012003a000020200081fc07007c
:1012000080007800200498000000e00005003a000b
:1012100029049800490498000900e8003004980067
:10122000060037001860a000400498000020b000bd
:1012300030049800410c9800510c9800b602070049
:101240002800900050049800380090006004980036
:1012500000002600180c70008000eb0001007800f0
:101260004f04be0000000600889fbe000004780006
:101270000000e0000f003a006044b8000800d00011
:1012800061262100608078000000e0000400320048
:10129000f5ff07000000e00001003d008084eb0046
:1012a0000804e80009007800e70f540028003c001b
:1012b000f2ff370010d8a30024003200a0049000f1
:1012c00040009000808f54000b0031000901500055
:1012d000384090000000fb0089007800af03070051
:1012e0000000e000110034008084440048009000b9
:1012f000808f5400f5ff39002800900040049800ca
:101300009800780000c020000080600002003200d9
:10131000a804900001003700b804900001e8a30081
:10132000090032006904980008003700a800900006
:101330004104980061049800510c98001890a00096
:101340000080eb0002003700590c98000000eb0011
:101350004f04be00000006000108780000000600ef
:1013600090cf1000050032001004e00001003a00a8
:1013700000000500d0cf1000fbff3a00000006007f
:101380000003b100030035009000b10001003c00f3
:101390001000050000000500889fbe008a1f78002d
:1013a0000004780001027800024578008304780088
:1013b0000200fb00cf80de005002b1000180b100ce
:1013c00032052000820f5000e08f58006b013e0074
:1013d00000600100630137006801370067013700d2
:1013e000660137006501370064013700630137008b
:1013f0006201370061013700600137005f0137008b
:101400005e0137005d0137005c0137005b0137008a
:101410005a0137005901370058013700570137008a
:10142000560137005501370054013700530137008a
:101430005201370051013700500137004f0137008a
:101440004e0137004d0137004c0137004b0137008a
:101450004a0137004901370048013700470137008a
:10146000460137004501370044013700430137008a
:101470004201370041013700400137003f0137008a
:101480003e0137003d0137003c01370021013700a4
:101490003a0137003901370038013700370137008a
:1014a0008100370035013700340137003301370040
:1014b0003201370031013700300137002f0137008a
:1014c0002e0137002d0137002c01370015003700a1
:1014d0001c00370029013700280137002701370099
:1014e0002601370017003700240137002301370099
:1014f0002201370021013700c20037006a0037009f
:10150000f50037001d0137001c01370001013700cd
:101510001a0137006400370018013700170137003f
:10152000610037006e0144001200780080814100a4
:101530009480e900010a78000009e80091497800e8
:101540001701370028619000c0c6b300804f5100da
:101550000a003a009400780064805000000a780085
:101560001000be004f89de00cf91de000002be00f9
:1015700002037800820378001600370010c7b3001a
:10158000804f510003003a001401780068005100b8
:101590000500370094007800a0c6b300804f5100ca
:1015a00005003a0068805000000a78003002be0052
:1015b0002003be00070037000180e900000a780020
:1015c0001000780000027800cfa2de00050378004a
:1015d00086037800049cbe000694be00a8609000bc
:1015e00080c6b30080cf50000f00320020c6b30089
:1015f00080cf500006003a00184078000000fb0041
:10160000cf80de0001017800820178000a003700f7
:1016100040c7b30080cf5000030032006640400056
:1016200080cf500006003a0018007800cf80de001e
:101630000101780082017800009cbe000294be0087
:101640003800be002801be00e00f5000e08f5800b7
:10165000e00f5900e08f590004003d006e01440086
:1016600092007800d0c2b3000c0037000810900040
:101670000018a300040032006e01440092007800bc
:10168000b0c2b300050037000008a30058003200c4
:101690006e0144009200780000c2b30080f478002c
:1016a0000109e8005200370028619000c0c6b3006d
:1016b000804f510006003a0094007800648050008a
:1016c000000a78001002be006033b8001600370030
:1016d00010c7b300804f510003003a001401780096
:1016e000680051000500370094007800a0c6b300e0
:1016f000804f510005003a0068805000000a7800d1
:101700003002be002003be00070037000180e90060
:10171000000a780010007800000278000500200020
:101720000600200007002000049cbe000694be00b6
:10173000a860900080c6b30080cf50000f00320038
:1017400020c6b30080cf500006003a001840780051
:101750000080fb00010020000200200003002000a8
:101760000a00370040c7b30080cf500003003200aa
:101770006640400080cf500006003a001800780014
:10178000010020000200200003002000009cbe0099
:101790000294be00081090000038a300140032002c
:1017a0003800be002801be00e00f5000e08f580056
:1017b000e00f5900e08f59000d00320080c7b300e0
:1017c000804f55000300320080c5b300804f5500a4
:1017d00007003a006e0044009000780002c3b30096
:1017e00082f478008100e8008af478000108e800bb
:1017f0007800900000804400600498008a407800df
:1018000041003700286090008000fb00c0062000e7
:10181000808f5000230032000a003c00640050001a
:10182000808f50002600320004003c00660050000b
:10183000808f50000b00320021003700a0062000ee
:101840000500370040072000808f50001c00320048
:101850001b003c0063005000808f500007003200e6
:10186000170037001480e900000a780010007800a3
:10187000485c900008487800490037001480e9006f
:10188000000a78001002780068089000cf80de001f
:101890000101780082017800009abe000292be0029
:1018a0003f0037001480e900000a7800100178003a
:1018b00068089000cf80de000089be003800370045
:1018c0001480e900000a780010007800680c90008d
:1018d00008087800320037001480e900000a780018
:1018e00010007800cf80de000101780082017800ce
:1018f000009cbe000294be0078009000008044006e
:101900006004980081c7b300080078004601070012
:10191000230037001480e900000a780010007800e6
:1019200060049800580990000200e00002003d00a9
:10193000c0fb0700090037008000eb00dbfc07005c
:10194000800078000000e000030032006800900092
:10195000008050000100370058089000100c9800db
:101960000f0037006e0144009200780050c2b300af
:1019700080f178000109e80009003700ee0044001a
:1019800011007800808144000a4278008008e80055
:101990000a04e00001003a0054c2b3008449780010
:1019a0000000eb004f0578004f04be000000060069
:1019b0000400fa00889fbe008a9fbe008c1f78003a
:1019c000000478000106780070089000f80090008c
:1019d0000100500088089000010050009808900015
:1019e00001005000a808900001005000b8089000c5
:1019f00001005000c808900081055000000222003c
:101a000090bf9f0000032300a0bf9f00081090001c
:101a10000028a30018003a000b00e0001600340074
:101a20000b0578008a047800e20f550001003600ab
:101a3000290020000900e0000c003400580090004c
:101a4000c801900009017800ee80570003000100f2
:101a5000500498008080eb000000e0009c00320001
:101a60006808900009004000600c980009055500c6
:101a70004240a900ebff3c00780190000200e0002a
:101a80000c00340058009000c80190008c007800d1
:101a900003000100500498008080eb000000e0008b
:101aa0008b00320068089000f800900001004000b0
:101ab000600c9800080890000000e0001600340058
:101ac000000578008a047800e20f55000100360016
:101ad000290020000900e0000c00340058009000ac
:101ae000c801900009017800ec8057000300010054
:101af000500498008080eb000000e0007400320089
:101b00006808900009004000600c98000905550025
:101b10004240a900ebff3c00180990000200e000e1
:101b20000c003400e800900058009000c8019000bc
:101b300003000100500498008080eb000000e000ea
:101b4000630032006808900098089000010040008f
:101b5000600c9800280890000000e0001600340097
:101b6000000578008a047800e20f55000100360075
:101b7000290020000900e0000c003400580090000b
:101b8000c801900009017800ec80570003000100b3
:101b9000500498008080eb000000e0004c00320010
:101ba0006808900009004000600c98000905550085
:101bb0004240a900ebff3c00380990000200e00021
:101bc0000e003400e800900018089000808040006b
:101bd00058009000c80190000300010050049800d4
:101be0008080eb000000e0003900320068089000bf
:101bf000b808900001004000600c98004808900070
:101c00000000e00016003400000578008a04780027
:101c1000e20f550001003600290020000900e00015
:101c20000c00340058009000c801900009017800b1
:101c3000ec80570003000100500498008080eb0006
:101c40000000e00022003200680890000900400017
:101c5000600c9800090555004240a900ebff3c00cc
:101c6000081090000028a300180032000b00e000cc
:101c7000160034000b0578008a047800e20f550046
:101c800001003600290020000900e0000c003400ab
:101c900058009000c801900009017800ee805700bc
:101ca00003000100500498008080eb000000e00079
:101cb000070032006808900009004000600c98009e
:101cc000090555004240a900ebff3c008000eb00f5
:101cd000010078004f0678004f05be004f04be009b
:101ce0000080fa0000000600881f780088002000ad
:101cf0000800d00061262100608078000000e0002c
:101d0000010032000a0007000804e900f8ff37006c
:101d100040e72000f60037001c54e20003003a00c0
:101d2000fbff070020c0b3001cf4b7000000060052
:101d3000889fbe00000478004bfd070080047800f7
:101d40001868a3000200320028009000edf9070097
:101d50000000eb0020049800384090000004e000f0
:101d6000050035000000fb003a0107000000e0001c
:101d7000010032008084eb00181090000000e000a9
:101d8000080032003c0107000000e00001003200c2
:101d90008084eb0018109000daf907000000eb00d7
:101da000101498001878a3000e0032008000eb0099
:101db0000100d0006226210002004000900f1400b4
:101dc000060032008100e800e78f5000f8ff36007f
:101dd00008007800cbf90700100037000008eb007e
:101de000fbff3700000ceb0000c0eb003044980014
:101df0006002200008004000200498004004980081
:101e000050049800400c980060049800500c980012
:101e10007004980076004400000c980009007800d7
:101e20004f04be00000006006f02b000889fbe0095
:101e30008a9fbe008c9fbe008e1f780080067800af
:101e4000d0392100b0b79f0080c5b30080cf5000cb
:101e500002003200c2382100b2b79f008300200088
:101e6000c3b79f00f0c6b30080cf50000a00320015
:101e70006940400080cf500005003200a4002000df
:101e8000c4b79f0080c5b30080cf500002003a0065
:101e900000012000c0b79f008e0120003d04be005d
:101ea0002d05be0040c6b30080cf500003003200b5
:101eb0006540400080cf50000a003a00e00f540017
:101ec000e08f5c00e00f5d00e08f5d0005003d00ed
:101ed0000800be000a01be00d10207000205be00d4
:101ee0000004be00e00f5400e08f5c00e00f5d00d6
:101ef000e08f5d0003003a005d0890000000e00004
:101f00000c0032007e012000cfb097000102780063
:101f1000cfa2de0005037800860378000800be002b
:101f20000a01be00540307003fb2970064407800e6
:101f3000d0e79f004fb09700cf80de00010178000e
:101f400082017800d0b79f00e1b79f00f2b79f00f1
:101f500083bf9f000203be000002be000800be0057
:101f60000a01be003d030700809ebe008296be00af
:101f7000e00f5000e08f5800e00f5900e08f59004b
:101f8000220034000e00e000200034003d00be00be
:101f90002d01be005fb29700efb297007fb39700ac
:101fa0008fbb9700380307000205be000004be0087
:101fb0000e07e900e1fc2f008f804000010647007a
:101fc0005fb29700efb297007fb397008fbb970087
:101fd0000800be000a01be00c80307001d00100073
:101fe0003fb19700624e7800889ebe008a96be0080
:101ff000e00f5400e08f5c00e00f5d00e08f5d00bb
:10200000020034000e00e000e0ff3c00cfb197007a
:10201000e88f510010003a000d1090000038a30026
:102020000d003200f70f570006003e00e4fc2f00c1
:102030000e024200e4c07f0000c3b30080cf500016
:10204000050032000e07e90000c3b300e1fc2f00d9
:102050008e80400080f07f0078011700920e98007b
:102060006d009000e3fc2f008f8141008e804100c5
:102070002afc07001d0e90005d089000800f56009e
:1020800006003d000c005000800e98000d109000de
:102090000040a100801698000f0037000000e0000b
:1020a0000d003d000d10900074006000f00f500016
:1020b00009003a007d089000fd00900001005000ea
:1020c0008d089000010050000c0750004240a9000c
:1020d000010034008e0e98004f0778004f06be00b6
:1020e0004f05be004f04be006f02b10000000600a5
:1020f00000017800802520000000e0000800320088
:1021000060a080000000e000050032000000e9004f
:1021100060a088000000d00051a0800002b07800cc
:10212000000006000c02e20004003d000f42ab007c
:10213000020032000f02ab00feff32000040da0066
:10214000feff3700889fbe00800478001e14e20066
:1021500005003a000000eb00500007008080eb0013
:102160000000e0000a003500f8a080008800780038
:102170000900e000060032000900440047000700a3
:102180008080eb000000e00001003500880078004e
:10219000010078004f04be00000006000a00fa00ab
:1021a00000027800c3202000e52020000721200045
:1021b00046212000e20f50001b003e0000a18000dd
:1021c000e10f50000400320063212000852120002f
:1021d000a7212000e6212000134090000078a300f2
:1021e00002003a00000beb0013f0a0001540900035
:1021f0000028a30001003a0015a0a0008201780089
:102200000200e00010003200154090000008a3001a
:10221000fdff32003100fb00800b78008301e900f4
:10222000f9ff3a000800370030002000b0bf9f00df
:10223000c4bf9f00d1bf9f00e2bf9f006a805700cc
:1022400000c0da006fb99700020078000080fa0041
:10225000000006000a00fa0011002000b1bf9f0034
:10226000c0bf9f006a80570000c0da004fb89700d7
:102270000080fa00000006000a00fa005100200069
:10228000b1bf9f00c0bf9f006a80570000c0da0046
:102290005fb897000080fa00000006008000780018
:1022a0000001eb000000e00003003a00a042210022
:1022b000f0a0880006003700a0822100808f500027
:1022c00002003e00f1a08800010037000081eb0011
:1022d0000200780000000600889fbe008a9fbe00b2
:1022e000010578000100e0000400350008003c0012
:1022f0000000e00020003200050037006000100000
:10230000e080180002003b0001f02c001a003700aa
:102310000004be006011b8006b0920000982cf00e4
:10232000020039000882cf000441b0006942520027
:102330000e00320008003b008281710061016400e0
:102340008904d1000884d3008b05e8000442e8002a
:10235000f9ff3a00050037000804440089844c0066
:102360008b05e9000442e900fbff3a002801070061
:102370000af0a70001f0a0004f05be004f04be0008
:1023800000000600889fbe008a9fbe008c1f780058
:10239000450107004c01330003866c006450e100e6
:1023a0002e0032006420e100330032006150e10071
:1023b0002f0032006120e100310032008585550098
:1023c000eb07b000090020000804200005003700da
:1023d0000804440089844c000a00310006034300cd
:1023e00087834b000001530081815b00f8ff3300bd
:1023f0000203be000800a0000804440089844c00c9
:10240000f6ff3900c639dd00830173000100320098
:10241000130020008904d1000884d3000998a30088
:10242000050032000800a7000300a0008904d100c5
:102430000884d3008b05e8008904d1000884d30008
:102440000001eb000281d200f100070001f0a100c1
:102450000cf0a70001f0a000240137006420e10087
:10246000260132000801be000200be00f7ff37005f
:102470006120e100210132006000b800f3ff370065
:102480000000200001f82700f0ff37000001be0027
:102490001d0107000470a70003f0a10003f8a300ca
:1024a00013003a006509b100100032000900350040
:1024b0006928e10002003500010028000000050045
:1024c00000004000818048008502e900fcff3a00de
:1024d00000000600f88f4200050035008100d100a1
:1024e0000080d3008502e800fcff3a0000000600ef
:1024f0008000eb0000000500839f68000100e00001
:1025000002003d0060001000e08018000300e000c1
:1025100002003d0060011100e08119000f01070079
:102520004f00e00002003b0060001000e080180057
:10253000000006001400200018013700889fbe002c
:102540008a9fbe008c1f7800d7000700de00330092
:1025500003866c006450e100240032006420e10036
:10256000270032006150e100220032006120e100ca
:10257000210032008b854200eb07b1000134b80026
:10258000003ab8000804420089844a00013ab800c1
:102590000030b8008880400009014a000400330080
:1025a0000000400081804800020149008b05e900dd
:1025b000c909dd0083017000010032001300200012
:1025c000c814de004814dd004709de001200b20026
:1025d000c808de00088470008d00070001f0a1002b
:1025e0000cf0a70001f0a000c00037006120e1005e
:1025f000c20032000801be000200be00f7ff370033
:102600006150e100fcff3a00bc00370003f0a2007b
:10261000889fbe008a9fbe008c1f7800a200070022
:10262000a90033006450e1004f0032006420e10053
:102630005200320003826c0007003b000905d00005
:102640000306d000820f54000c065d000200390022
:102650000200320089017800030678008582550067
:1026600004003d000003fd008103fd008502ea0037
:102670008b854200840f720002003b006000100056
:10268000e08018006011b8000005eb007a28e10036
:102690000a00390006007800c75ddd00f707b200c8
:1026a000878075002d003700828171000a01780053
:1026b000610560008180d1000080d3008502e900bf
:1026c000f9ff3b00060440008784480002003b00fd
:1026d00060041400e0841c000988a3000700320095
:1026e0008a81710082817100610164008904d100d6
:1026f0000884d3008b05e800170037000978a30091
:1027000013003a000b00e000130034008b05e900d1
:102710000804440089844c000a4474000978a3002a
:102720000d003a000b00e000070034008b05e900c3
:102730000804440089844c0001003a000b0020008a
:102740000978a300f7ff32000001eb000200370018
:10275000828171000a0178002d0007000cf0a700ab
:1027600001f0a000610037006420e10002003a009f
:10277000838f6c00610033000801be000200be00c0
:102780005a003700f4ff2f00840037000001be001c
:102790005d0007000470a70003f0a1006509b10007
:1027a000160032000d0035006828e10006003500f3
:1027b000f0ff2f00f1ff27000300e00013003b00b3
:1027c0000100280000000500000040008180480052
:1027d0008502e900fcff3a0008003700f88f42004c
:1027e00002003c008000eb00000005008100d100e9
:1027f0000080d3008502e800fcff3a000300e000ff
:1028000002003b0060001000e0801800000006009d
:1028100081002000618055000b003d000b0020006e
:1028200061fe2f000100e1001d0034008281710073
:10283000610164008904d1000884d3000000e8002d
:10284000faff3a007100200061006400030070008c
:10285000020060000900320061044400e0844c0082
:102860000988a500050032008b05e8006808e10032
:1028700002003a008904d1000884d300f20f20003e
:102880000258e10005003d00c75ddd00f907b20018
:102890008980750008007800000006000bf827000a
:1028a0008b007800000005000004be001600070041
:1028b0000003be000405be000200be0012000700b7
:1028c000844f7500000006000200be006450e10065
:1028d000050036006420e100020036000968a3000c
:1028e00001003a000800be000160a0004f06780019
:1028f0004f05be004f04be0000000600f0ff2f0091
:10290000f1ff2700f9ff3700c70ade00f107b20028
:10291000f50fb20008003200e1cf420002003200a1
:102920000170a00024000500810f7000010032003a
:102930000408050044000500810f700002003a0001
:10294000140005008502e9000000400081c0480035
:10295000fcff3b000170a000240005006022b800cd
:10296000060220000000d0008180d2000482d20044
:102970008582d2000000a0000202520083825a0029
:1029800003003b000202420083824a000000a100d3
:102990000603e900f3ff3a0000000600889fbe002e
:1029a0008a9fbe00841f7800bfff07004f00780099
:1029b00011003300f0ff2f00838f6c0006003b00f6
:1029c000040565000a00a7000800370009f0a6000a
:1029d0001000200008003700820f5400838f5c0035
:1029e000030039001000200001003e00000020001c
:1029f00009f0a7000000ea004f05be004f04be002a
:102a00000000e00000000600020ab900001bb90047
:102a10000200b8008100420081004300000006006f
:102a200060001000e080180060011900e0811900ca
:102a300000000600881f7800000478005001be00e6
:102a40004000be000000420081804a0002014b00ad
:102a500083814b00009cbe000294be00dc00070096
:102a600003003100480090000000e8004004980096
:102a70004f04780000000600889fbe000004780024
:102a80008004eb005001be004000be00d0000700f3
:102a9000010031001900200004005000858058001a
:102aa0000601590087815900009cbe000294be00b7
:102ab0004800900009005000400498004f04be00f8
:102ac000000006001200fa00889fbe008a9fbe0028
:102ad0008c1f78000205be000004be00f4b79f0002
:102ae00085bf9f0096bf9f00a7bf9f000000eb001f
:102af000e0b79f00d0b79f00c0b79f00b0b79f005e
:102b0000a0b79f000006eb005fb197006fb0970081
:102b10008000d0000000e00015003d00e1b79f00fc
:102b2000010078000200e00001003d000000a0006c
:102b3000ac00070001003d000000a000af0007004e
:102b400001003d000000a000b200070001003d00b0
:102b50000000a0008100070001003d000000a0006f
:102b6000b20007007c805700b2ff07001400370056
:102b7000e1b79f00010078000200e00001003d0085
:102b80000000a0009700070001003d000000a00029
:102b90009a00070001003d000000a0009d00070012
:102ba00001003d000000a0006c00070001003d0096
:102bb0000000a0009d0007007c805700aeff0700ca
:102bc0006fb097000000e000070035001000200003
:102bd000010020006011b8000804700089847000b2
:102be0000a0571008b8571000c06e800f0032000d7
:102bf000800f5600c4ff34006fb097000000e00063
:102c000006003d007fb297008fba97001fbb970068
:102c1000afbb97007c80570086ff07000802be000c
:102c20000a03be006fa897000000e00004003a000d
:102c30002fb29700bfb297004fb39700dfb3970052
:102c40000400be000601be004f0678004f05be001e
:102c50004f04be000080fa0000000600881f7800c4
:102c600018002000881f780096ff07008f87e90072
:102c70004f04780000000600801feb0091ff070062
:102c80008f87e900000006000800fa00889fbe0058
:102c90008a9fbe008c1f78006e00070005003d0073
:102ca00043000700300007000c003d003300070020
:102cb0000b003700e00f5200e08f5a00e00f5b007e
:102cc000e08f5b0006003d000400be000601be0070
:102cd00053ff07000205be000004be001c002000d8
:102ce0002c000700ddff07000c00e00001003200af
:102cf0004bff07004f0678004f05be004f04be0093
:102d00000080fa00000006000800fa00889fbe005c
:102d10008a9fbe008c1f78004e00070002003d0015
:102d20001c002000220007000f00070001003d00ea
:102d30001200070017000700cfff07000c00e0009b
:102d40000100320036ff07004f0678004f05be0035
:102d50004f04be000080fa000000060090b79f00fc
:102d60000100d00080b79f00e00f5400e08f5c00ae
:102d7000e00f5d00e08f5d00000006000800be006f
:102d80000a01be0026ff07000205be000004be00c7
:102d9000000006000802be000a03be005fb09700f4
:102da000efb097007fb197008fb997000000060041
:102db0001bff07000100070000000600b0b79f00de
:102dc000c1b79f00d2b79f00e3b79f000000060085
:102dd0000400e1000588e1000690e1000798e100a9
:102de00000000600c0b79f000200d000b0b79f00ef
:102df000afb097000100e00000000600b0b79f00f0
:102e00000100d000a0b79f009fb097000100e00034
:102e100000000600a0b79f000100d00090b79f00ff
:102e20008fb097000100e0000000060080b79f000f
:102e30000804d0008984d2000a85d2008b85d20094
:102e40005fb29700efb297007fb397008fbb9700f8
:102e500000000600d9ff07000605be000404be00fe
:102e60000006eb00e00f5000e08f5800e00f590023
:102e7000e08f590000000600889fbe008a9fbe00b8
:102e80008c9fbe000404b8000506b8008904460003
:102e900060854e000606b8000a054600e0854e0033
:102ea0000706b8008b054600040eb80089044600ea
:102eb0000a854e00050eb8000a0546008b854e00b7
:102ec000060eb8008b0546000416b8000a05460039
:102ed0008b854e000516b8008b054600041eb80011
:102ee0008b0546000800be000a01be004f06be006a
:102ef0004f05be004f04be00000006000800fa00a7
:102f0000889fbe008a9fbe00170007000605be000e
:102f10000404be00e00f5200e08f5a00e00f5b0097
:102f2000e08f5b0008003d000400be000601be000b
:102f3000bbfe07000205be000004be000f00070034
:102f4000b7fe0700080007000802be000a03be0023
:102f50000a000700c8ff07004f05be004f04be006f
:102f60000080fa0000000600e0b79f00f1b79f0064
:102f700082bf9f0093bf9f00000006006fb09700c4
:102f8000ffb097000fb997009fb9970000000600a7
:102f9000811f7800801f7800f0ff2700c012880092
:102fa000003020000000b300d0128800de02a9002b
:102fb00000000000e002a9009001090000000000ec
:102fc000e002a80041e2a8004602ae00feff370082
:102fd000f0ff2700c0128800004020003001b3003d
:102fe000d01288004602ae00feff3700f0ff270037
:102ff000c0128800001020000030a0000040a00097
:10300000d01288004602ae00feff3700f0ff270016
:10301000c012880000202000d01288004602ae00b6
:10302000feff3700f0ff2700c0128800006020007c
:103030000010a000d01288004602ae00feff37004c
:10304000f0ff2700c012880000702000f005b300d8
:10305000d01288004602ae00feff370001f02000cb
:1030600030128000010060000000e000fcff3a0028
:1030700030128000010060000000e000fcff320020
:1030800030128000010060000000e000fcff3a0008
:1030900030128000010060000000e000fcff320000
:1030a0004662ae000200370080128000901280005d
:1030b00041e2a900f01e2000101288004362a8001f
:1030c0004342a8008920a900a8c0a800a8a0a90080
:1030d000a880a9009120a80041e2a8004f00780034
:1030e000cf00780000000600801f78004022ef002b
:1030f0004222ef004422ef004822ef004c22ef0072
:10310000c6e2a800e5a2a900e582a800e5e2a900c0
:10311000e5c2a9004002a9004022a90040a2a900de
:103120004122a90040c2a8004102a9004142a900d1
:10313000f00e2000101288004362a9004342a8004c
:1031400030002000201288004c02a8004802a8008d
:103150008920a9009120a90041e2a9004f00780030
:10316000000006008920a900809fbe00829fbe004b
:103170008012800090128000a0128000b0128000a7
:10318000e613e20026003a00ea13e20024003200cf
:103190003400f8004400f8004440a800609f80001c
:1031a000a0018800b1a080001a19020000000000f0
:1031b000110078000000a100c01288001a19020056
:1031c00000000000110078000000a100d01288006b
:1031d0001a19020000000000110078000000a10090
:1031e000e01288001a1902000000000011007800a7
:1031f0000000a100f0128800eab3ed00eab3ed0090
:10320000b1a08800a1018000619f88004400f900fe
:103210003400f9004f01be004f00be000040060020
:10322000e833ef00e6b3ef004f01be004f00be00f1
:1032300000400600e280400004003900a101800047
:10324000e1804000a1018800010028000000060084
:103250000200fa00e202a8000000eb00000f780074
:10326000f07022009e0f100002003c001e0fe800cc
:10327000fbff37009cff070045ff07000080fa00b6
:10328000000006000400fa00000f78001107980003
:10329000e8b3ef00e633ef009e0090001e007800d8
:1032a000060007000080fa00000006000000fa0097
:1032b000e202a9000080fa0000000600811f7800e9
:1032c000821f78004100dd00030037004f017800c5
:1032d000cf00780000000600519f88000001eb003d
:1032e000e1e42b00810040000300390002002800c7
:1032f00082804000120020004400f8003400f800f2
:103300004440a8000000200002004000a001880006
:1033100000000000c6190200000000001100780043
:103320000000a100c0128800c619020000000000c1
:10333000110078000000a100d0128800c619020018
:1033400000000000110078000000a100e0128800d9
:10335000c619020000000000110078000000a10062
:10336000f0128800eab3ed00eab3ed00b1a08800e6
:10337000a1018000619f88003400f9000000000076
:103380004400f9008920a900d0ff3700e280400006
:1033900004003900a1018000e1804000a101880003
:1033a00001002800000006000000fa00c4c2a900c5
:1033b000c4e2a900c522a900c582a900c542a9008e
:1033c000c5a2a900c5c2a900c5e2a900c0c2a90042
:1033d000c0e2a900c122a900c182a900c142a9007e
:1033e000c1a2a900c1c2a900c1e2a900d022a900be
:1033f000cc22a900d042a900cc42a900e2e2a90057
:10340000e302a900e802a900e822a900dee2a9007f
:10341000df02a900e402a900e422a900e202a90057
:10342000de02a900d602a900d622a900d642a90030
:10343000d662a900d682a900d6a2a900d6c2a90048
:10344000d6e2a900d202a900d222a900d242a90044
:10345000d262a900d282a900d2a2a900d2c2a90038
:10346000d2e2a900d1a2a900cda2a900e842a900f8
:10347000e862a900e442a900e462a900de22a800f3
:10348000dec2a800e4c2a800e4e2a800e502a800a9
:10349000e522a800d302a800d322a800d342a800a6
:1034a000d362a800d382a800d3a2a800d3c2a800e8
:1034b000d3e2a8000080fa000000060000a0fe0091
:1034c0000200fa0086c0a900d013e2000b0034000d
:1034d000a09e80000000e800a09e8800c09e8000a2
:1034e0000000e900c09e8800d813e2000e003d00f5
:1034f00030002000c09e88000b003700a09e800096
:103500000000e900a09e8800c09e80000000e80046
:10351000c09e8800c09e8000e30f5000020034006f
:103520000000eb00c09e8800c09e8000000f780065
:103530001e007800e10f5000130032001e007800da
:10354000e10f500004003c001e0078000000e00085
:10355000080032001a0037001e007800e20f500009
:103560000e0032001e007800e30f50001000320001
:1035700013003700d602a900d622a800d642a9001f
:10358000d662a8000e003700d602a900d622a800f5
:10359000d642a800d662a90009003700d602a800ca
:1035a000d622a900d642a800d662a900040037009e
:1035b000d602a800d622a900d642a900d662a80049
:1035c0000080fa000080fe000040060000a0fe001f
:1035d0000200fa0086a0a900d213e2000b003d0011
:1035e000b09e80000000e900b09e8800d09e800060
:1035f0000000e900d09e8800da13e2000e003d00d2
:1036000030002000d09e88000b003700b09e800064
:103610000000e800b09e8800d09e80000000e80016
:10362000d09e8800d09e8000e30f5000020034003e
:103630000000eb00d09e8800d09e8000000f780034
:103640001e007800e10f5000130032001e007800c9
:10365000e10f500004003c001e0078000000e00074
:10366000080032001a0037001e007800e20f5000f8
:103670000e0032001e007800e30f500010003200f0
:1036800013003700d682a900d6a2a800d6c2a9008e
:10369000d6e2a8000e003700d682a900d6a2a80064
:1036a000d6c2a800d6e2a90009003700d682a80039
:1036b000d6a2a900d6c2a800d6e2a900040037000d
:1036c000d682a800d6a2a900d6c2a900d6e2a80038
:1036d0000080fa000080fe00004006000000fa00b2
:1036e00031ff07000080fa00000006000400fa0025
:1036f000000f78001e00e00006003a0021e1a9005a
:10370000d602a900d622a900d642a900d662a900f5
:103710002000370021e1a9001e007800809e88006b
:103720000000eb00000988000112200091407800a1
:1037300000c3b30000c0700020e1b7000000eb0040
:10374000c00888001e017800120798001e00900033
:103750000000e00003003d001e0190000201ea00ad
:10376000120798001e0190006110b900dafa0700f4
:103770000001be00000020001176240001fb0700bc
:1037800042fb0700e008880086c0a9008ec0a800a0
:1037900021e1a8000080fa00000006000400fa0001
:1037a000000f78001e00e00006003a001fe1a900ab
:1037b000d682a900d6a2a900d6c2a900d6e2a90045
:1037c000200037001fe1a9001e007800909e8800ad
:1037d0000000eb00f0088800e11120009140780023
:1037e00000c3b30000c070001ee1b7000000eb0092
:1037f000a00888001e017800120798001e009000a3
:103800000000e00003003d001e0190000201ea00fc
:10381000120798001e0190006110b900aefa07006f
:103820000001be000000200011762400d5fa070038
:1038300016fb0700d008880086a0a9008ea0a8006b
:103840001fe1a8000080fa00000006000000fa0056
:10385000a09e80000080fa00000006000200fa002e
:10386000000f78001027fc001e007800a09e880042
:103870000200fc000080fa00000006000000fa00d0
:10388000b09e80000080fa00000006000200fa00ee
:10389000000f78001027fc001e007800b09e880002
:1038a0000200fc000080fa00000006000000fa00a0
:1038b0000000eb0080088800011120009140780092
:1038c000f0ccb30000c0600010e1b7000000eb00d6
:1038d00030088800205c20006008880084c0a900af
:1038e0008cc0a80011e1a8000080fa0000000600ca
:1038f0000000fa0011e1a9000080fa0000000600b3
:103900000800fa00000f780011079800c0a080009e
:10391000200798002e0090000000e0000b0032000d
:103920002e009000300090009e0f500003003a00df
:1039300011002000310798001f0037002e00900072
:103940004000900020079800f2ff3700a000200000
:10395000acf20700200798002e0090000000e00065
:1039600002003a0010002000d1f207002e00900063
:103970009e00900001087800ae0090000000eb006f
:1039800090009800ae00900010c0b300c0409800b6
:103990002e0090009e007800310098002e009000cc
:1039a000c1a08000410098002e009000c0a08800b7
:1039b00011002000310798003e0090000080fa00be
:1039c000000006000800fa00000f78000000eb007d
:1039d00010079800c0a08000200798002e009000db
:1039e0000000e0001a0032002e009000300090002d
:1039f0009e0f500010003a001e0090000000e000f2
:103a0000050032009e0090002e00900040009000c3
:103a1000c0009800030037002e0090004000900086
:103a2000c0a088002e009000b6f207001000200011
:103a300030079800080037002e009000100798000b
:103a40002e0090004000900020079800e3ff370010
:103a500020002000300798003e0090000080fa000f
:103a6000000006000800fa00000f78001107980017
:103a7000c0a08000200798002e0090000000e00009
:103a80000e0032002e009000300090009e0f50007b
:103a900006003a002e0090009e0090000108780079
:103aa0001000200030079800060037002e0090001c
:103ab0004000900020079800efff37002100200011
:103ac000310798003e0090000080fa0000000600d8
:103ad0000600fa00000f7800c0a0800010079800d0
:103ae0001e0090000000e0000e0032001e0090005a
:103af000300090009e0f500006003a009e0090009b
:103b00000000eb00900098001000200020079800b3
:103b1000060037001e00900040009000100798003b
:103b2000efff370020002000200798002e009000b3
:103b30000080fa00000006000600fa00000f78007e
:103b4000c0a08000100798001e0090000000e00058
:103b50000e0032001e009000300090009e0f5000ba
:103b600006003a009e0090000040eb00c040980024
:103b70001000200020079800060037001e0090006b
:103b80004000900010079800efff37002000200051
:103b9000200798002e0090000080fa000000060028
:103ba0000600fa00000f7800c0a0800010079800ff
:103bb0001e0090000000e0000e0032001e00900089
:103bc000300090009e0f500006003a009e009000ca
:103bd00010c0b300c04098001000200020079800db
:103be000060037001e00900040009000100798006b
:103bf000efff370020002000200798002e009000e3
:103c00000080fa00000006003600f800809fbe0029
:103c1000829fbe00849fbe00869fbe000200fa0005
:103c2000c0a08000000f780084c0a9001e00e00042
:103c30001c0032001e00780040409000e14f500010
:103c400014003a001e0078001000e000110032005d
:103c50009e0078001e007800100090000000e80030
:103c6000900098001e0178001e0078009000e90086
:103c700012009000810f5000060036001e007800f0
:103c800030009000000001009e0078000000eb0072
:103c9000900098001e00780040009000000f78000f
:103ca000e2ff37000080fa004f03be004f02be0063
:103cb0004f01be004f00be003600f9000040060074
:103cc0000200fa00004f780010c0b3009e4f1000b1
:103cd00003003a0010c0b30052e8b70002003700fa
:103ce0000040eb0052e8b7000000eb000015880030
:103cf0000000eb00101588000000eb002015880084
:103d00000000eb0030158800a802a800a822a80037
:103d1000a842a900a862a900a882a900a8a2a90097
:103d2000a8c2a900a8e2a900a902a900a922a90085
:103d3000a942a900a962a900a982a900a9a2a90073
:103d4000a9c2a900a9e2a900aa02a900aa22a90061
:103d5000aa42a800aa62a800aa82a800aaa2a90052
:103d6000aac2a900aae2a900ab02a900ab22a9003d
:103d7000ab42a900ab62a900ab82a900aba2a9002b
:103d8000abc2a900abe2a900112a20009140780043
:103d9000c0cfb30000c06000a1e2b700a042a800fd
:103da000012a20009140780000ceb30000c07000ce
:103db000a0e2b700212a20009140780030ccb30067
:103dc00000c060000034a000a2e2b700a342a80037
:103dd000512a20009140780000ceb30000c060005e
:103de0000004a000a5e2b7005248e200070032003c
:103df000412a20009140780000ccb30000c0600050
:103e00003041b300a4e2b70007003700412a200088
:103e10009140780000ccb30000c0600071c2b300d4
:103e200001407000a4e2b7008560a9008d60a80081
:103e3000a1e2a8005248e20005003a00000000009c
:103e400081a0800000032000808f5000fbff36001f
:103e50000080fa0000000600809fbe00821f7800ec
:103e60000a00fa000040eb0050e8b7000040eb0009
:103e700051e8b7008560a9005248e20023003200f3
:103e800000282000000f780070a080000000d00003
:103e900062852000820040001e00780090087800b3
:103ea0001e8fe80070a080000000d00062a52000f6
:103eb000820040001e007800900878001e8fe80005
:103ec00070a080000000d00062c520008200400089
:103ed0001e007800900878001e8fe80070a0800017
:103ee0000000e8008000780071a08800f00f20003a
:103ef000808f50004d0136000000eb0070a088005c
:103f000010c0b30051e8b70048013700c0012000dd
:103f100050158800212a20009140780030ccb30051
:103f200000c060000034a000a2e2b700412a2000d7
:103f30009140780000ccb30000c0600071c2b300b3
:103f400001407000a4e2b700d0c3b3005348e300bf
:103f50000f003a00c00f200050158800212a2000d1
:103f60009140780030ccb30000c060004041b30005
:103f7000a2e2b700412a20009140780000ccb300b3
:103f800000c060003041b300a4e2b7005e0037001b
:103f9000e0c3b3005348e3002c003a00212a20007c
:103fa0009140780030ccb30000c060000044a00015
:103fb000a2e2b700412a20009140780000ccb30073
:103fc00000c060007041b300a4e2b70054c8bf0055
:103fd0000080fb00100798001e009000e10f5000c9
:103fe000110032009e009000e18f500004003c0060
:103ff0001e0190000200e00008003200420037007d
:104000001e009000e20f50000a0032009e00900057
:10401000e38f50000a0032003b003700c01121003e
:104020005015880038003700c02122005015880044
:1040300035003700c0412400501588003200370099
:10404000c0812800501588002f00370030852000df
:1040500022c0b300904f11002b003a00212a20000b
:104060009140780030ccb30000c060000044a00054
:10407000a2e2b700412a20009140780000ccb300b2
:1040800000c060007041b300a4e2b70054c8bf0094
:104090000080fb00200798002e009000e10f5000e8
:1040a00011003200ae009000e18f500004003c008f
:1040b0002e0190000200e0000800320012003700dc
:1040c0002e009000e20f50000a003200ae00900077
:1040d000e38f50000a0032000b003700c0112100ae
:1040e0005015880008003700c021220050158800b4
:1040f00005003700c0412400501588000200370039
:10410000c08128005015880000282000000f78008a
:1041100070a080000000d000628520008200400076
:104120001e007800900878001e8fe80070a08000c4
:104130000000d00062a52000820040001e00780030
:10414000900878001e8fe80070a080000000d0006a
:1041500062c52000820040001e00780090087800b0
:104160001e8fe80070a080000000e800800078004a
:1041700071a08800f00f2000808f500002003600f0
:104180000000eb0070a08800e0c3b3005348e300d8
:104190001e003a0080a080000000e8008000780047
:1041a00081a0880010032000808f5000020036009c
:1041b0000000eb0080a0880080a080000000d000fc
:1041c00062e52000820040001e0078009008780020
:1041d0001e8fe80080a080000000d000a2eb20002d
:1041e000820040001e007800900878001e8fe800d2
:1041f00080a080000000d000e2f12000820040009a
:104200001e007800900878007e003700f0c3b300ed
:104210005348e30038003a0054c8bf000080fb0058
:10422000300798003e009000e10f50001700320068
:10423000be009000e18f500004003c003e01900061
:104240000200e000080032006e0037003e009000df
:10425000e20f500016003200be009000e38f5000c5
:104260001c003200670037001e0078001000780044
:10427000107c88001e8fe8001e0078001000780077
:10428000507c8800e2e2a8005e0037001e00780043
:1042900010007800207c88001e8fe8001e00780047
:1042a00010007800607c8800e302a8005500370009
:1042b0001e00780010007800307c88001e8fe80017
:1042c0001e00780010007800707c8800e802a800ca
:1042d0004c0037001e00780010007800407c8800f9
:1042e0001e8fe8001e00780010007800807c880097
:1042f000e822a800430037003085200032c0b30018
:10430000904f11003f003a0054c8bf000080fb00ee
:10431000400798004e009000e10f50001900320055
:10432000ce009000e18f500004003c004e01900050
:104330000200e00008003200320037004e0090001a
:10434000e20f50001a003200ce009000e38f5000c0
:10435000220032002b0037001e0078001000780089
:10436000907c88001e8fe8001e0078001000780006
:10437000d07c8800e2e2a90010c0b30054e8b70086
:10438000200037001e00780010007800a07c880014
:104390001e8fe8001e00780010007800e07c880086
:1043a000e302a90020c0b30054e8b70015003700ad
:1043b0001e00780010007800b07c88001e8fe80096
:1043c0001e00780010007800f07c8800e802a90048
:1043d00030c0b30054e8b7000a0037001e00780070
:1043e00010007800c07c88001e8fe8001e00780056
:1043f00010007800007d8800e822a9000040eb0052
:1044000054e8b70031852000114078000041780061
:104410000040e80080487800f0c3b300804f5100ae
:10442000020036000040eb0053e8b70010c0b300b4
:1044300050e8b7000080fa004f0178004f00be003e
:10444000004006000000fa0050c8bf000080fb00da
:104450000080fa00000006000000fa0051c8bf000a
:104460000080fb000080fa00000006000000fa0057
:10447000a1e2a8000080fa00000006000000fa0097
:10448000a1e2a9000080fa00000006000200fa0084
:10449000000f78009e007800001020000008b8008f
:1044a00072a08000020040000000d0006185200062
:1044b00001004000100078000080fa0000000600b3
:1044c0000c00fa00000f7800110798006000b80097
:1044d0002007980031079800200020009e0f100050
:1044e00030003e001e0090000000e0002d00320071
:1044f0009e00900000102000808f500029003e0098
:104500000000eb004007980071a080001e009000a2
:10451000008050001110200080804000f00f20002b
:104520000080600050079800ce0090001e009000b0
:10453000808f50001b0031009e007800001020008a
:104540000008b8005e019000020040000000d000aa
:104550006185200001004000100078006101b90071
:104560002e009000be0090000000410081804900b4
:1045700020079800310798004e0090000000e800e6
:10458000400798005e0090000000e8000210200044
:10459000110009000200d8008000fd0050079800bb
:1045a000e1ff37001e0090006101b8002e0090006e
:1045b000be009000d0f707000080fa00000006005f
:1045c0000800fa00000f78000000eb0020079800b8
:1045d00070382100300798000000eb0010079800a9
:1045e0009e009000f00f2000808f50002f003c00b4
:1045f0009e007800001020000008b8001e01900006
:10460000020040000000d0006285200082004000cf
:104610002e009000910f10000b0034009e007800d7
:10462000001020000008b8001e01900002004000a9
:104630000000d000618520000100400010007800db
:1046400020079800150037009e0078000010200019
:104650000008b8001e019000020040000000d000d9
:1046600062852000820040003e009000910f100003
:104670000a003d009e007800001020000008b800ed
:104680001e019000020040000000d0006185200063
:104690000100400010007800300798001e009000d4
:1046a0000000e80010079800cdff3700ae00900032
:1046b0003e009000008050000080fa0000000600dc
:1046c0000800fa00000f78001107980022079800f0
:1046d0002e0090000000e00022003200ae009000aa
:1046e00000102000808f50001e003e000000eb00f4
:1046f00030079800be0090002e009000808f500080
:1047000018003100ae0090003e0090000080500084
:104710008000d0001e009000008040000082e90070
:104720009e01780071a080003e00900080804000d3
:10473000f00f200000816000001020000018b80079
:10474000000041000000d000618520000100400011
:10475000100a78003e0090000000e8003007980042
:10476000e4ff37000080fa00000006001c00fa0099
:104770000000eb001007980020fd20003503070023
:10478000000f78000000eb00200798002e0090003a
:104790009e0f5000ba003d000000eb00400798005b
:1047a000ae009000d00120000008b80082fd20007b
:1047b000020040001004e00002003a001000200057
:1047c000400798008000eb0051079800ae00900071
:1047d000d00120000008b80092fd20000200400037
:1047e0001004e00002003a0010002000500798007a
:1047f000ce0090005e01900082806000610798000a
:104800000000eb0070079800ae009000d00120007f
:104810000008b800a2fd2000020040001004e000e3
:1048200002003a001000200070079800ee0090008f
:104830007e01900082806000010f98000000eb0074
:10484000100f9800ae009000d00120000008b800c2
:1048500072fd20000200400081c0b30090cf100024
:1048600002003a0012002000120f98008e089000fb
:104870001e099000028060000000e0007c00320011
:10488000ae009000d00120000008b80022fd2000fa
:10489000000041007e0307000000eb00200f98009d
:1048a000ae009000d00120000008b800b2fd20004a
:1048b0008200400050c6b300914f100002003a0041
:1048c00010002000200f98008000eb00310f9800ae
:1048d000ae009000d00120000008b800c2fd20000a
:1048e00082004000d0c2b300914f100002003a0095
:1048f00010002000300f9800ae0890003e09900094
:1049000082806000410f98000000eb00500f98007b
:10491000ae009000d00120000008b800d2fd2000b9
:104920008200400000c7b300914f100002003a001f
:1049300010002000500f9800ce0890005e099000f3
:10494000028060000000e000490032000000eb003f
:10495000300798003e009000e30f500022003c001a
:104960009e009000b00020000008b8003e019000ba
:1049700002004000410f210081014000ae00900084
:10498000d00120000008b8003e0190000200400065
:1049900022fd200002004000904978009e00900017
:1049a000b00020000008b8003e0190000200400066
:1049b000a10f210081014000ae009000d001200035
:1049c0000008b8003e0190000200400022fe2000d6
:1049d00002004000904978003e0090000000e8008e
:1049e00030079800dbff37009e009000b0002000e9
:1049f0000008b800e20f2100820040000040eb00f8
:104a00008048780040002000300798003e00900069
:104a1000e50f500013003c009e009000b000200005
:104a20000008b8003e01900002004000410f210044
:104a300081014000ae009000d00120000008b800c5
:104a40003e0190000200400022fd200002004000d4
:104a5000904978003e0090000000e8003007980080
:104a6000eaff37001e0090000000e80010079800e1
:104a70002e0090000000e8002007980043ff370058
:104a80001e0090000080fa00000006000600fa00f8
:104a900020162100f200070034ff0700000f780005
:104aa0001e00e0000b003200a00f2100960107005d
:104ab000400f2100670307002047980020162100bf
:104ac000910107002e4090000000fb002007980095
:104ad0000200370030062000200798002e009000ca
:104ae0000080fa00000006003000fa0020c0b30089
:104af000004f780020c5b3001047980060c2b30093
:104b0000204798000040eb00304798000040eb0041
:104b10004047980080c7b3005047980030c0b300aa
:104b200060479800710020000e007800880607009a
:104b30000000eb00301798000040eb00006f980079
:104b4000e80047003e109000008040002f0607005c
:104b50000000e00008003200e80047003e1090002e
:104b60000080400010407800006f98003e109000d8
:104b70000000e800301798000e689000e34f5000e6
:104b8000efff3a0068004700304090000000fb0053
:104b9000e60040003e109000810f5000e8ff350015
:104ba000e80047003e109000808040000040eb008d
:104bb000804878000000eb0030179800680047003c
:104bc000604090008000fb003e109000810f50007c
:104bd0000d003d00a10220008e8040003e1090009c
:104be00000814000e80047003e1090000080400037
:104bf00067004000104978003e1090000000e80077
:104c000030179800edff3700a10220008e80400091
:104c10003e109000808040000040eb00804878000b
:104c2000a00220000e004000a20020008000eb0047
:104c30006dee07000080fa00000006001600fa0082
:104c400020c0b300004f780020c5b3001047980083
:104c5000a0c1b300204798000040eb003047980007
:104c60000040eb0040479800c0c6b3005047980092
:104c700030c0b30060479800710020000e0078003b
:104c8000330607000000eb00100f98000040eb0017
:104c900040579800e80047001e0890000080400040
:104ca000da0507000000e00008003200e8004700d5
:104cb0001e08900000804000104078004057980087
:104cc0001e0890000000e800100f98004e50900061
:104cd000e34f5000efff3a0068004700304090007b
:104ce0000000fb00e60040001e089000810f50000d
:104cf000e8ff3500e80047001e0890008080400073
:104d00000040eb0080487800680047006040900059
:104d10000000fb000080fa00000006001600fa0008
:104d200020c0b300004f780020c5b30010479800a2
:104d300010c1b3002047980010c0b300304798005e
:104d40000040eb004047980040c6b3005047980031
:104d500010c0b3006047980030c0b300704798009f
:104d6000810020000e007800f90507000000eb002c
:104d7000100f98000040eb0040579800e8004700f3
:104d80001e08900000804000a00507000000e00021
:104d900008003200e80047001e0890000080400034
:104da00010407800405798001e0890000000e8006e
:104db000100f98004e509000e34f5000efff3a0064
:104dc00068004700304090000000fb00e600400013
:104dd0001e089000810f5000e8ff3500e8004700f2
:104de0001e089000808040000040eb008048780062
:104df00068004700604090000000fb000080fa005f
:104e0000000006000400fa000de2a900de62a9001d
:104e1000e262a9006000b800008fbe001e00be0064
:104e20002df507006266260063662400c1f50700c1
:104e30000000e00005003d001000200001002000ff
:104e40001e0f40005e974800f4ff3700e262a800a2
:104e5000de62a8002d0507000080fa0000000600b1
:104e60002c00fa00000f78008e80e80020c0b3000c
:104e7000804878008e80e80020c5b30090409800fc
:104e80008e80e80060c1b300a04098008e80e800ea
:104e90000040eb00b04098008e80e8000040eb003e
:104ea000c04098008e80e80080c6b300d0409800d3
:104eb0008e80e80030c0b300e04098000e80e8002b
:104ec00071002000a20507000000eb0040179800c9
:104ed0000040eb00206f9800ea0047004e10900061
:104ee00000804000490507000000e0000800320093
:104ef000ea0047004e10900000804000104078000b
:104f0000206f98004e1090000000e80040179800b5
:104f10002e689000e34f5000efff3a006a00470010
:104f2000304090000080fb00e60040004e109000f2
:104f3000810f5000e8ff3500ea0047004e10900056
:104f4000808040000040eb00804878000000eb00cb
:104f5000401798006a004700704090008080fb0076
:104f60004e109000810f50000b003d004e1090003d
:104f70001e014000ea0047004e10900000804000f3
:104f800068004000104978004e1090000000e800d2
:104f900040179800efff37004e1090009e00400031
:104fa0000040eb00804878006a00470060409000b5
:104fb0000000fb000080fa00000006003600fa0046
:104fc000000f78008e80e80020c0b3008048780091
:104fd0008e80e80020c5b300904098008e80e800e5
:104fe00030c0b300a04098008e80e8000040eb0085
:104ff000b04098008e80e8000040eb00c040980070
:105000008e80e80050c5b300d04098008e80e80044
:1050100030c0b300e04098000e80e800710020002e
:105020004b0507000000eb00101f98000040eb004c
:1050300040779800ea0047001e189000008040006a
:10504000f20407000000e00008003200ea00470018
:105050001e189000008040001040780040779800b3
:105060001e1890000000e800101f98004e7090007d
:10507000e34f5000efff3a006a00470030409000d5
:105080000000fb00e60040001e189000810f500059
:10509000e8ff3500ea0047001e18900080804000bd
:1050a0000040eb00804878000000eb00101f9800e3
:1050b0006a004700704090008000fb001e189000be
:1050c000810f50000b003d001e1890001e01400093
:1050d000ea0047001e189000008040006800400071
:1050e000104978001e1890000000e800101f98007a
:1050f000efff37006a004700604090000000fb00af
:105100000080fa00000006003000fa00000f78006e
:105110001e007800c7ed0700701798008e80e80029
:1051200020c0b300804878008e80e80020c5b3001e
:10513000904098008e80e80070c1b300a0409800b5
:105140008e80e8006e6890000040e800b040980053
:105150008e80e8000040eb00c04098008e81e8009f
:105160000e80e8008e80e800104190002140900001
:10517000804041000e80e8003040900000c04000b8
:10518000d04198000e80e800ee68900061409800e1
:105190000000eb0050179800de1090007e10900089
:1051a000808f50000b003d008e80e8005e10900064
:1051b00000804000e70040005e1090001e004000ac
:1051c000904878005e1090000000e80050179800aa
:1051d000f1ff37008e80e8007e10900000804000d4
:1051e000e700400030c0b300804878007e10900097
:1051f000e80040000e80e800d50407000000eb0046
:10520000501798000040eb00406f9800010220000a
:105210008e8040005e109000008040007b040700fc
:105220000000e00009003200010220008e804000f2
:105230005e1090000080400010407800406f9800a1
:105240005e1090000000e800501798004e68900033
:10525000e34f5000edff3a00000220000e00400036
:10526000304090000000fb00e60040005e1090001f
:10527000810f5000e5ff3500010220008e804000c4
:105280005e109000808040000040eb008048780075
:10529000000220000e004000604090000000fb0073
:1052a0000080fa00000006003a00fa00000f7800c3
:1052b0001e0078005fed0700401f98004e18900018
:1052c0000000e800401f98008e80e80020c0b30076
:1052d000804878008e80e80020c5b3009040980098
:1052e0008e80e80040c0b300a04098008e80e800a7
:1052f0000e7890000040e800b04098008e80e800f2
:105300000040eb00c04098008e81e8000e80e8006d
:105310008e80e800104190002140900080404100c4
:105320000e80e8003040900000c04000d04198005e
:105330000e80e8008e789000614098000000eb003d
:10534000201f9800ae1890004e189000808f5000db
:105350000b003d008e80e8002e1890000080400079
:10536000e70040002e1890001e0040009048780092
:105370002e1890000000e800201f9800f1ff370071
:105380008e80e8004e18900000804000e70040004a
:1053900030c0b300804878004e189000e80040000c
:1053a0000e80e8006a0407000000eb00201f980050
:1053b0000040eb0060779800a10220008e80400042
:1053c0002e18900000804000100407000000e0004c
:1053d00009003200a10220008e8040002e189000ab
:1053e0000080400010407800607798002e189000f0
:1053f0000000e800201f98006e709000e34f5000fe
:10540000edff3a00a00220000e0040003040900066
:105410000000fb00e60040002e189000810f5000b5
:10542000e5ff3500a10220008e8040002e1890007c
:10543000808040000040eb0080487800a0022000ff
:105440000e004000604090000000fb000080fa0069
:10545000000006004a00fa00000f78008e80e80085
:1054600020c0b300804878008e80e80020c5b300db
:10547000904098008e80e8000040eb00a04098002b
:105480008e80e80030c0b300b04098008e80e80005
:105490000040eb00c04098008e80e80050c5b3008b
:1054a000d04098008e80e80050c0b300e0409800e3
:1054b0008e80e800a0c0b300f04098008e80e80025
:1054c0000040eb00804898008e80e80030c0b300b8
:1054d000904898000e80e800a10020001c040700fe
:1054e0000000eb00701f98000000eb0010279800f0
:1054f0000000eb00002798000040eb0040c7980038
:105500000000eb0000279800ec0047000e20900000
:1055100000804000bd0307000000e00008003200ea
:10552000ec0047000e209000008040001040780002
:1055300040c798000e2090000000e8000027980067
:105540004ec09000e34f5000efff3a006c00470060
:10555000304090000000fb00e60040000e2090006c
:10556000810f5000e8ff35006c004700904090002c
:1055700090c6b30080cf50002c003a000000eb0032
:10558000002798000e209000e50f50000f003c000f
:10559000fe189000d00120000008b8009e004000d6
:1055a0000e20900000814000ec0047000e2090008b
:1055b0000080400066004000104978000e209000f6
:1055c0000000e80000279800eeff37000000eb0025
:1055d000002798000e209000e20f500010003c00c1
:1055e000fe189000d00120000008b8009e00400086
:1055f0000e2090000080400066014000ec00470053
:105600000e209000008040006c004000104978009f
:105610000e2090000000e80000279800edff370002
:105620007e1890000000e800701f98000000eb005a
:10563000302798006c0047009040900030c4b300c1
:1056400080cf500002003200110020003127980066
:105650000001eb00422798006c00470020409000ba
:105660000004e000020032001000200040279800f3
:10567000be2090004e219000028060000000e000fb
:105680009fff3a007e1890000080fa00000006009c
:105690004600fa00000f78008e80e80020c0b300ba
:1056a000804878008e80e80020c5b30090409800c4
:1056b0008e80e80020c0b300a04098008e80e800f3
:1056c00060c0b300b04098008e80e8000040eb005e
:1056d000c04098008e80e800a0c5b300d04098007c
:1056e0008e80e8001e00780010407800e0409800ae
:1056f0008e80e8001e00780010409000f040980076
:105700008e80e8001e0078002040900080489800bd
:105710008e80e8001e00780030409000904898008d
:105720008e80e8001e00780040409000a04898005d
:105730008e80e8001e00780050409000b04898002d
:105740008e80e80030c0b300c04898000e80e800aa
:10575000d10020007e0307000000eb001027980016
:105760000040eb0040c79800f00047001e2090006a
:1057700000804000250307000000e0000800320020
:10578000f00047001e20900000804000104078008c
:1057900040c798001e2090000000e80010279800e5
:1057a0004ec09000e34f5000efff3a0070004700fa
:1057b000304090000000fb00e60040001e209000fa
:1057c000810f5000e8ff3500f00047001e209000d8
:1057d000808040000040eb00804878007000470067
:1057e000604090000004e00015003a000000eb006b
:1057f0001027980070004700504890008000fb0080
:105800001e209000810f50000d003d009e0078008a
:105810001e2090000080400069014000f000470019
:105820001e209000008040006e004000104978006b
:105830001e2090000000e80010279800edff3700c0
:1058400070004700604090000000fb000080fa00fc
:10585000000006004c00fa00000f78008e80e8007f
:1058600020c0b300804878008e80e80020c5b300d7
:10587000904098008e80e800a0c0b300a04098003f
:105880008e80e80080c0b300b04098008e80e800b1
:105890000040eb00c04098008e80e80040c6b30096
:1058a000d04098008e80e80010c0b300e04098001f
:1058b0008e80e8001e00780010407800f0409800cc
:1058c0008e80e8001e00e8001040780080489800b4
:1058d0008e80e8001e80e800104078009048980014
:1058e0008e80e8001e0178006300410010407800bf
:1058f000a04898008e80e8001e01780064004100f6
:1059000010407800b04898008e80e8001e017800b2
:105910006500410010407800c04898008e80e80083
:1059200010c0b300d04898008e80e80030c0b300ab
:10593000e04898000e80e800f10020000403070012
:105940000000eb00202798000040eb0060c79800a3
:105950000000eb0020279800f20047002e20900066
:1059600000804000a90207000000e00008003200ab
:10597000f20047002e209000008040001040780088
:1059800060c798002e2090000000e80020279800b3
:105990006ec09000e34f5000efff3a0072004700e6
:1059a000304090000000fb00e60040002e209000f8
:1059b000810f5000e8ff35000000eb004027980001
:1059c00072004700a040900090c6b30080cf500006
:1059d0000200320011002000412798000001eb0076
:1059e000522798007200470020409000eb4f500073
:1059f000020032001000200050279800ce209000b6
:105a00005e219000028060000000e000d0ff3a00bc
:105a100072004700604090000000fb000080fa0028
:105a2000000006002000fa0020c0b300004f7800fc
:105a300020c5b30010479800d0c0b300204798009d
:105a400010c0b300304798000040eb00404798007a
:105a500000c6b3005047980010c0b30060479800dc
:105a600030c0b30070479800810020000e0078001d
:105a7000b70207000000eb00100f98000040eb0099
:105a800040579800e80047001e0890000080400042
:105a90005e0207000000e00008003200e800470056
:105aa0001e08900000804000104078004057980089
:105ab0001e0890000000e800100f98004e50900063
:105ac000e34f5000efff3a0068004700304090007d
:105ad0000000fb00e60040001e089000810f50000f
:105ae000e8ff3500e80047001e0890008080400075
:105af0000040eb00804878000000eb00400f980069
:105b00006800470020409000ed4f500002003a002e
:105b100011002000410f98000001eb00520f980087
:105b200068004700604090000004e000020032007e
:105b300010002000500f9800ce0890005e099000e1
:105b4000028060000000e0000500320068004700ad
:105b5000604090000000fb00300f980036003700d6
:105b6000000000000000eb00100f9800e800470064
:105b70001e08900000804000240207000000e000a2
:105b800008003200e80047001e0890000080400036
:105b900010407800405798001e0890000000e80070
:105ba000100f98004e509000e34f5000efff3a0066
:105bb00068004700304090000000fb00e600400015
:105bc0001e089000810f5000e8ff35000000eb0038
:105bd000600f9800680047009040900090c6b300a6
:105be00080cf50000200320011002000610f9800a9
:105bf0000001eb00720f980068004700a040900081
:105c000010c5b30080cf5000020032001000200009
:105c1000700f9800ee0890007e09900002806000ee
:105c20000000e000cfff3a006800470060409000ad
:105c30000000fb00300f98003e0890000080fa0042
:105c4000000006008a00fa00000f78002147980043
:105c5000e400470020c0b30080487800e40047001b
:105c600020c5b30090409800e4004700f0c0b300a6
:105c7000a0409800e40047002e40900063404000a0
:105c8000b0409800e40047000040eb00c04098009e
:105c9000e401470064004700e40047001041900021
:105ca0002140900080404100640047003040900057
:105cb00000c04000d0419800e400470010c0b3008d
:105cc000e040980064004700ae40900071409800aa
