:020000040000fa
:080000000401040000000000ef
:020000040000fa
:10020000be02040000000000af90210080792200af
:100210000001880000000000050007000c00070036
:10022000ca160200000000000040da000000fe00d4
:100230004440a900400520000000e0000300320017
:1002400000002000a00188004440a8000000060033
:1002500040fe2e0001002000160037006200400022
:10026000e0804800910188009001ba0062004000df
:10027000e0804800910188009002ba0062004000ce
:10028000e08048000002eb006028e10005003a0031
:100290008301e90007003300038009000059eb00e7
:1002a000040037006128e100010032000082eb0009
:1002b00005000700910188001001ba000200e0006b
:1002c000e6ff3a00000005009101880080027800f6
:1002d00062004000e08048003559ba008301e9001f
:1002e000080032002559ba008301e90005003200f8
:1002f0000400e000f4ff320015d9ba008301e900e0
:10030000f1ff3a0000000600889fbe0080047800dc
:1003100041a78000010078000100e0000a003a00d7
:10032000a14e2100ea14e2001c0032001100780006
:10033000908f5400140036008080e8001100e00027
:10034000faff3a00150037001100e0000600320005
:1003500011017800928f54000b0036008280e80073
:100360001100e000faff3a0010017800a14e2100d0
:1003700050a78000820f5000080032001100780062
:10038000908f540002003e000100780015003700f5
:100390008080e800910f1100f8ff3a0068a7800004
:1003a000890f54000100310009047800080078002a
:1003b00038010700000178000000e00005003a0065
:1003c0000000eb00890f5400060032000804d10041
:1003d000f3ff370008197800020078002e000700ac
:1003e000cbff37004f04be0000000600881f7800d6
:1003f000630440000800a1000001eb00800f5400de
:1004000022003600e30f540001003e0048002000a7
:1004100008007800bcff0700800078000001eb00b6
:100420000000e0001900320010017800920178000d
:1004300064805100880f50000300310012009000ca
:100440008008780007003700080041008008780025
:1004500012029000140098001100780008885100e2
:1004600008097800910078000100e00004003200e3
:10047000110090008180e8000000e00001003a00d7
:100480008000eb0041a788000281e80002007800ac
:100490004f047800000006000000e0003600320043
:1004a0000081e90012027800e30f520032003600aa
:1004b0000408a30030003a0051a780000100e000ca
:1004c00002003200810f5100030031000108780062
:1004d00052a788001d0037008101780011009000ac
:1004e0000000e00008003200820f500006003100da
:1004f00080017800100090000000e000020032004f
:10050000820f5000faff390093007800018041000b
:10051000800f510018003900820f500003003a008c
:1005200084894000030178000800370093009000a0
:100530000100e0000300320004004100808f500001
:100540000d0039001101980092019800920090006e
:100550000100e00008003200920178000300410031
:10056000810f500004003a00e834ef001089410088
:10057000100090001001980000000600881f78000d
:1005800002047800ca000700080040004f04780009
:10059000000006000000fa00881f780000047800c0
:1005a0003fb99700ea81570080007800e02b2000d7
:1005b000c6000700800078000000e000020035005f
:1005c0000040eb0000f47800010078004f04780050
:1005d0000080fa0000000600800078001004e000af
:1005e000020032005104e000feff3a00008050009b
:1005f000000006000004780092a7800070a7800029
:10060000800f51000a0031008200d0000200e80093
:1006100090a7880080a7800061007800000001009a
:1006200092a7800070a78000800f5100f6ff39006c
:100630000044210080a788002002200070a78800c5
:10064000080078008a040700ea874700889fbe00f8
:100650008a9fbe008c9fbe008e1f780080067800a7
:100660000106780082047800000478000100370059
:100670000804e8001800fb00490107000000e00042
:10068000fbff3a0098407800d0c2b30080cf500002
:100690000400320000c0e900d0ef9f0080cf50007e
:1006a00002003a00d1ef9f000804e8000900e000d2
:1006b00046003500e18f5400440032004002200023
:1006c000808f540041003c000900e0000d00340020
:1006d000f08f54001a003a0000c3b300984f100086
:1006e00017003a009840900080c7b30080cf5000b8
:1006f0001200320080c5b30080cf500010003a00d5
:100700000e00370000c3b300984f10000200320003
:10071000a90020000a0037009840900080c7b3006d
:1007200080cf5000040032008900200080c5b30053
:1007300080cf500002003a00090120000884e80040
:10074000d8b79f0000c3b300984f100002003a00d2
:10075000d84f1000feff32006055b800080778003f
:100760000e003700fab79f008bbf9f00e0362100d4
:1007700000425200c4ef9f006149b9000a00be0068
:10078000130607004fea97000401fb00cf91de003b
:1007900000054100818549000804e8001800fb00bd
:1007a000070107008000780009017800e036210089
:1007b0000a010700000278000000e000e9ff3a00ab
:1007c0005fb09700880f500005003a000c00e00071
:1007d000010032000d0e78006000b80027003700dd
:1007e0008e00540030392100694078000000fb0081
:1007f00000805000170033004240a9000f003c0069
:100800004fe997000200fb00cf80de00000055009a
:1008100081805d00800f5500818f5d0007003900e9
:100820006149b9006c0507007fb197008fb9970047
:10083000820f5000838f58000600320020022000f3
:10084000c0a788000085eb008085eb00b3c2b30031
:10085000d3ef9f00d0c2b3005fea9700804f5200f1
:1008600002003a0060051500e0851d000c00e00064
:1008700001003200080e78000a00be004f07780021
:100880004f06be004f05be004f04be00af00b100d2
:10089000000006000000e00003003400fc03070035
:1008a000e10f400001003a000000eb0000000600ec
:1008b000800178000200e00003003200b1597800a6
:1008c0000201e900fdff3a00000006006200fa00a4
:1008d000889fbe008a9fbe000004be00020578000b
:1008e000830078006a805700cb000700f88f9f00d4
:1008f00089979f000000eb00909f9f001a80fb00eb
:100900008005fb000000ea00cf04de000904780047
:1009100050022000808f550001003a000904e900d0
:100920000800e0000c0034000f90970008017800e8
:100930008a007800ff8997000300010080979f00dc
:100940008080eb000000e000900032001f989700cc
:1009500008004000909f9f000905450050022000bc
:10096000808f5500040032000b00e000e3ff3a00e6
:100970009f989700850037000000eb00f0979f00dc
:10098000e0979f00d0979f00c0979f00b0979f006f
:10099000a0979f00b09f9f0009003700604a210088
:1009a000008050000000d000c14a2100010040003a
:1009b000bf98970090807000b19f9f000a05e800e3
:1009c0009a00fb00604a2100950007008000780033
:1009d0000000e000f1ff3a00a0c2b3009a4f1000ff
:1009e0000e003a003fb897000080e900b0bf9f00ba
:1009f00010007800a09f9f000000e00005003d006f
:100a00000000ea00a09f9f003f9897000020a000f0
:100a1000b09f9f000a05e80011003700a19f9f00ca
:100a20000b003700af989700f0ff2700808f500031
:100a3000060032006a09b9001a00fb0002004000fb
:100a400001fd2f0001004000a09f9f000a05e80063
:100a50001a00fb007a0007000000e000f1ff3a00f6
:100a6000e0c2b3009a4f1000030032000080eb0098
:100a7000809f9f001c003700a0c2b300da4f100017
:100a800007003a003fb897000080e900b0bf9f0020
:100a900010007800809f9f000a05e80012003700d0
:100aa0000000eb00809f9f000b0037008f9897009d
:100ab000f0ff2700808f5000060032006a09b9005d
:100ac0001a00fb000200400001fd2f000100400061
:100ad000809f9f000a05e8001a00fb0058000700ed
:100ae0000000e000f1ff3a009a00fb0020502100d6
:100af0004b0007008040eb000000e00001003200e6
:100b0000ba407800817f9f0080c6b30080cf50003c
:100b100004003a009acf100002003a0066405000ec
:100b2000070037008f789700c0c6b30080cf500011
:100b300005003a009acf100003003a0065404000db
:100b4000807f9f000a05e800a0fb2f00008447007b
:100b50003a01fb0088017800ea80570060f92f0015
:100b60000f0040003c0007000000e00006003a00d3
:100b70008800780060f92f000f004000bc010700da
:100b80000000e0005dff3d008080eb000100780088
:100b90004f05be004f04be000080fa0000000600b2
:100ba0006900e100040035006d00e100030034003d
:100bb0000002b10001003200000005001000050035
:100bc000800078001104b100030035009101b100ec
:100bd00001003c000050a000000006000200e00000
:100be0000500320090cf1000040032000000e80041
:100bf0000201e900fbff3a000000eb0000000600e4
:100c0000d0a780000000e0000100320000000100d9
:100c1000804f210000000600010878000000060057
:100c200090cf1000050032001004e00001003a00ef
:100c300000000500d0cf1000fbff3a0000000600c6
:100c40000003b100030035009000b10001003c003a
:100c50001000050000000500889fbe008a1f780074
:100c600000047800010278000245780083047800cf
:100c70000200fb00cf80de005002b1000180b10015
:100c800032052000820f5000e08f58006b013e00bb
:100c90000060010063013700680137006701370019
:100ca00066013700650137006401370063013700d2
:100cb0006201370061013700600137005f013700d2
:100cc0005e0137005d0137005c0137005b013700d2
:100cd0005a013700590137005801370057013700d2
:100ce00056013700550137005401370053013700d2
:100cf0005201370051013700500137004f013700d2
:100d00004e0137004d0137004c0137004b013700d1
:100d10004a013700490137004801370047013700d1
:100d200046013700450137004401370043013700d1
:100d30004201370041013700400137003f013700d1
:100d40003e0137003d0137003c01370021013700eb
:100d50003a013700390137003801370037013700d1
:100d60008100370035013700340137003301370087
:100d70003201370031013700300137002f013700d1
:100d80002e0137002d0137002c01370015003700e8
:100d90001c003700290137002801370027013700e0
:100da00026013700170037002401370023013700e0
:100db0002201370021013700c20037006a003700e6
:100dc000f50037001d0137001c0137000101370015
:100dd0001a01370064003700180137001701370087
:100de000610037006e0144001200780080814100ec
:100df0009480e900010a78000009e8009149780030
:100e00001701370028619000c0c6b300804f510021
:100e10000a003a009400780064805000000a7800cc
:100e20001000be004f89de00cf91de000002be0040
:100e300002037800820378001600370010c7b30061
:100e4000804f510003003a001401780068005100ff
:100e50000500370094007800a0c6b300804f510011
:100e600005003a0068805000000a78003002be0099
:100e70002003be00070037000180e900000a780067
:100e80001000780000027800cfa2de000503780091
:100e900086037800049cbe000694be00a860900003
:100ea00080c6b30080cf50000f00320020c6b300d0
:100eb00080cf500006003a00184078000000fb0088
:100ec000cf80de0001017800820178000a0037003f
:100ed00040c7b30080cf500003003200664040009e
:100ee00080cf500006003a0018007800cf80de0066
:100ef0000101780082017800009cbe000294be00cf
:100f00003800be002801be00e00f5000e08f5800fe
:100f1000e00f5900e08f590004003d006e014400cd
:100f200092007800d0c2b3000c0037000810900087
:100f30000018a300040032006e0144009200780003
:100f4000b0c2b300050037000008a300580032000b
:100f50006e0144009200780000c2b30080f4780073
:100f60000109e8005200370028619000c0c6b300b4
:100f7000804f510006003a009400780064805000d1
:100f8000000a78001002be006033b8001600370077
:100f900010c7b300804f510003003a0014017800dd
:100fa000680051000500370094007800a0c6b30027
:100fb000804f510005003a0068805000000a780018
:100fc0003002be002003be00070037000180e900a8
:100fd000000a780010007800000278000500200068
:100fe0000600200007002000049cbe000694be00fe
:100ff000a860900080c6b30080cf50000f00320080
:1010000020c6b30080cf500006003a001840780098
:101010000080fb00010020000200200003002000ef
:101020000a00370040c7b30080cf500003003200f1
:101030006640400080cf500006003a00180078005b
:10104000010020000200200003002000009cbe00e0
:101050000294be00081090000038a3001400320073
:101060003800be002801be00e00f5000e08f58009d
:10107000e00f5900e08f59000d00320080c7b30027
:10108000804f55000300320080c5b300804f5500eb
:1010900007003a006e0044009000780002c3b300dd
:1010a00082f478008100e8008af478000108e80002
:1010b0007800900000804400600498008a40780026
:1010c00041003700286090008000fb00c00620002f
:1010d000808f5000230032000a003c006400500062
:1010e000808f50002600320004003c006600500053
:1010f000808f50000b00320021003700a006200036
:101100000500370040072000808f50001c0032008f
:101110001b003c0063005000808f5000070032002d
:10112000170037001480e900000a780010007800ea
:10113000485c900008487800490037001480e900b6
:10114000000a78001002780068089000cf80de0066
:101150000101780082017800009abe000292be0070
:101160003f0037001480e900000a78001001780081
:1011700068089000cf80de000089be00380037008c
:101180001480e900000a780010007800680c9000d4
:1011900008087800320037001480e900000a78005f
:1011a00010007800cf80de00010178008201780015
:1011b000009cbe000294be007800900000804400b5
:1011c0006004980081c7b30008007800f6000700ab
:1011d000230037001480e900000a7800100078002e
:1011e00060049800580990000200e00002003d00f1
:1011f000f9fc0700090037008000eb0077fe0700cc
:10120000800078000000e0000300320068009000d9
:10121000008050000100370058089000100c980022
:101220000f0037006e0144009200780050c2b300f6
:1012300080f178000109e80009003700ee00440061
:1012400011007800808144000a4278008008e8009c
:101250000a04e00001003a0054c2b3008449780057
:101260000000eb004f0578004f04be0000000600b0
:101270000400fa00889fbe008a9fbe008c1f780081
:10128000000478000106780070089000f8009000d3
:10129000010050008808900001005000980890005c
:1012a00001005000a808900001005000b80890000c
:1012b00001005000c8089000810550000002220083
:1012c00090bf9f0000032300a0bf9f000810900064
:1012d0000028a30018003a000b00e00016003400bc
:1012e0000b0578008a047800e20f550001003600f3
:1012f000290020000900e0000c0034005800900094
:10130000c801900009017800ee8057000300010039
:10131000500498008080eb000000e0009c00320048
:101320006808900009004000600c9800090555000d
:101330004240a900ebff3c00780190000200e00071
:101340000c00340058009000c80190008c00780018
:1013500003000100500498008080eb000000e000d2
:101360008b00320068089000f800900001004000f7
:10137000600c9800080890000000e000160034009f
:10138000000578008a047800e20f5500010036005d
:10139000290020000900e0000c00340058009000f3
:1013a000c801900009017800ec805700030001009b
:1013b000500498008080eb000000e00074003200d0
:1013c0006808900009004000600c9800090555006d
:1013d0004240a900ebff3c00180990000200e00029
:1013e0000c003400e800900058009000c801900004
:1013f00003000100500498008080eb000000e00032
:1014000063003200680890009808900001004000d6
:10141000600c9800280890000000e00016003400de
:10142000000578008a047800e20f550001003600bc
:10143000290020000900e0000c0034005800900052
:10144000c801900009017800ec80570003000100fa
:10145000500498008080eb000000e0004c00320057
:101460006808900009004000600c980009055500cc
:101470004240a900ebff3c00380990000200e00068
:101480000e003400e80090001808900080804000b2
:1014900058009000c801900003000100500498001b
:1014a0008080eb000000e000390032006808900006
:1014b000b808900001004000600c980048089000b7
:1014c0000000e00016003400000578008a0478006f
:1014d000e20f550001003600290020000900e0005d
:1014e0000c00340058009000c801900009017800f9
:1014f000ec80570003000100500498008080eb004e
:101500000000e0002200320068089000090040005e
:10151000600c9800090555004240a900ebff3c0013
:10152000081090000028a300180032000b00e00013
:10153000160034000b0578008a047800e20f55008d
:1015400001003600290020000900e0000c003400f2
:1015500058009000c801900009017800ee80570003
:1015600003000100500498008080eb000000e000c0
:10157000070032006808900009004000600c9800e5
:10158000090555004240a900ebff3c008000eb003c
:10159000010078004f0678004f05be004f04be00e2
:1015a0000080fa00000006006f02b000889fbe00b5
:1015b0008a9fbe008c9fbe008e1f78008006780038
:1015c00050492100b0b79f0080c5b30080cf5000c4
:1015d0000200320042482100b2b79f008300200081
:1015e000c3b79f00f0c6b30080cf50000a0032009e
:1015f0006940400080cf500005003200a400200068
:10160000c4b79f0080c5b30080cf500002003a00ed
:1016100000012000c0b79f008e0120003d04be00e5
:101620002d05be0040c6b30080cf5000030032003d
:101630006540400080cf50000a003a00e00f54009f
:10164000e08f5c00e00f5d00e08f5d0005003d0075
:101650000800be000a01be00630207000205be00ca
:101660000004be00e00f5400e08f5c00e00f5d005e
:10167000e08f5d0003003a005d0890000000e0008c
:101680000c0032007e012000cfb0970001027800ec
:10169000cfa2de0005037800860378000800be00b4
:1016a0000a01be00e60207003fb2970064407800de
:1016b000d0e79f004fb09700cf80de000101780097
:1016c00082017800d0b79f00e1b79f00f2b79f007a
:1016d00083bf9f000203be000002be000800be00e0
:1016e0000a01be00cf020700809ebe008296be00a7
:1016f000e00f5000e08f5800e00f5900e08f5900d4
:10170000220034000e00e000200034003d00be0046
:101710002d01be005fb29700efb297007fb3970034
:101720008fbb9700ca0207000205be000004be007e
:101730000e07e900e1fc2f008f8040000106470002
:101740005fb29700efb297007fb397008fbb97000f
:101750000800be000a01be005a0307001d00100069
:101760003fb19700624e7800889ebe008a96be0008
:10177000e00f5400e08f5c00e00f5d00e08f5d0043
:10178000020034000e00e000e0ff3c00cfb1970003
:10179000e88f510010003a000d1090000038a300af
:1017a0000d003200f70f570006003e00e4fc2f004a
:1017b0000e024200e4c07f0000c3b30080cf50009f
:1017c000050032000e07e90000c3b300e1fc2f0062
:1017d0008e80400080f07f0078011700920e980004
:1017e0006d009000e3fc2f008f8141008e8041004e
:1017f0002ffc07001d0e90005d089000800f560022
:1018000006003d000c005000800e98000d10900066
:101810000040a100801698000f0037000000e00093
:101820000d003d000d10900074006000f00f50009e
:1018300009003a007d089000fd0090000100500072
:101840008d089000010050000c0750004240a90094
:10185000010034008e0e98004f0778004f06be003e
:101860004f05be004f04be006f02b100000006002d
:101870000c02e20004003d000f42ab000200320007
:101880000f02ab00feff32000040da00feff37001f
:10189000889fbe00800478000015e20005003a0031
:1018a0000000eb00100007008080eb000000e0006b
:1018b0000a00350008a88000880078000900e000d0
:1018c0000600320009004400070007008080eb009a
:1018d0000000e00001003500880078000100780079
:1018e0004f04be0000000600800078000001eb00fd
:1018f0000000e00003003a00a050210000a888008a
:1019000006003700a0902100808f500002003e00aa
:1019100001a88800010037000081eb000200780078
:1019200000000600839f68000100e00002003d0007
:1019300060001000e08018000300e00002003d009d
:1019400060011100e0811900230107004f00e00051
:1019500002003b0060001000e0801800000006005c
:10196000889fbe008a9fbe00010578000100e0004c
:101970000400350008003c000000e00020003200b8
:101980000500370060001000e080180002003b00f6
:1019900001f02c001a0037000004be006011b800ee
:1019a0006b0920000982cf00020039000882cf00b5
:1019b0000441b000694252000e00320008003b00b2
:1019c00082817100610164008904d1000884d30020
:1019d0008b05e8000442e800f9ff3a0005003700f3
:1019e0000804440089844c008b05e9000442e900a6
:1019f000fbff3a00080107000af0a70001f0a00071
:101a00004f05be004f04be0000000600889fbe00c8
:101a10008a9fbe008c1f7800250107002c0133002f
:101a200003866c006450e100240032006420e10071
:101a3000270032006150e100220032006120e10005
:101a4000210032008b854200eb07b1000134b80061
:101a5000003ab8000804420089844a00013ab800fc
:101a60000030b8008880400009014a0004003300bb
:101a70000000400081804800020149008b05e90018
:101a8000c909dd008301700001003200130020004d
:101a9000c814de004814dd004709de001200b20061
:101aa000c808de0008847000db00070001f0a10018
:101ab0000cf0a70001f0a0000e0137006120e1004a
:101ac000100132000801be000200be00f7ff37001f
:101ad0006150e100fcff3a000a01370003f0a20068
:101ae000889fbe008a9fbe008c1f7800f000070010
:101af000f70033006450e1004f0032006420e10041
:101b00005200320003826c0007003b000905d00040
:101b10000306d000820f54000c065d00020039005d
:101b200002003200890178000306780085825500a2
:101b300004003d000003fd008103fd008502ea0072
:101b40008b854200840f720002003b006000100091
:101b5000e08018006011b8000005eb007a28e10071
:101b60000a00390006007800c75ddd00f707b20003
:101b7000878075002d003700828171000a0178008e
:101b8000610560008180d1000080d3008502e900fa
:101b9000f9ff3b00060440008784480002003b0038
:101ba00060041400e0841c000988a30007003200d0
:101bb0008a81710082817100610164008904d10011
:101bc0000884d3008b05e800170037000978a300cc
:101bd00013003a000b00e000130034008b05e9000d
:101be0000804440089844c000a4474000978a30066
:101bf0000d003a000b00e000070034008b05e900ff
:101c00000804440089844c0001003a000b002000c5
:101c10000978a300f7ff32000001eb000200370053
:101c2000828171000a0178007b0007000cf0a70098
:101c300001f0a000af0037006420e10002003a008c
:101c4000838f6c00af0033000801be000200be00ad
:101c5000a800370014002000ad003700f4ff2f006b
:101c6000ab003700889fbe008a9fbe008c1f7800a3
:101c70008f0007009600330003866c006450e1007b
:101c80002e0032006420e100330032006150e10098
:101c90002f0032006120e1003100320085855500bf
:101ca000eb07b00009002000080420000500370001
:101cb0000804440089844c000a00310006034300f4
:101cc00087834b000001530081815b00f8ff3300e4
:101cd0000203be000800a0000804440089844c00f0
:101ce000f6ff3900c639dd008301730001003200c0
:101cf000130020008904d1000884d3000998a300b0
:101d0000050032000800a7000300a0008904d100ec
:101d10000884d3008b05e8008904d1000884d3002f
:101d20000001eb000281d2003b00070001f0a1009e
:101d30000cf0a70001f0a0006e0037006420e10065
:101d4000700032000801be000200be00f7ff37003d
:101d50006120e1006b0032006000b800f3ff370043
:101d60000000200001f82700f0ff37000001be004e
:101d7000820007000470a70003f0a10003f8a3008d
:101d800013003a006509b100100032000900350067
:101d90006928e1000200350001002800000005006c
:101da00000004000818048008502e900fcff3a0005
:101db00000000600f88f4200050035008100d100c8
:101dc0000080d3008502e800fcff3a000000060016
:101dd0008000eb00000005006022b8000602200031
:101de0000000d0008180d2000482d2008582d2001f
:101df0000000a0000202520083825a0003003b0050
:101e00000202420083824a000000a1000603e900aa
:101e1000f3ff3a00000006008100200061805500b9
:101e20000b003d000b00200061fe2f000100e100cf
:101e30001d00340082817100610164008904d100b9
:101e40000884d3000000e800faff3a007100200087
:101e500061006400030070000200600009003200ad
:101e600061044400e0844c000988a50005003200ac
:101e70008b05e8006808e10002003a008904d100ff
:101e80000884d300f20f20000258e10005003d0055
:101e9000c75ddd00f907b200898075000800780091
:101ea000000006000bf827008b00780000000500fa
:101eb0000004be00310007000003be000405be00a0
:101ec0000200be002d000700844f750000000600d0
:101ed0000200be006450e100050036006420e1000d
:101ee000020036000968a30001003a000800be00a5
:101ef0000160a0004f0678004f05be004f04be00f1
:101f000000000600f0ff2f00f1ff2700f9ff370067
:101f1000889fbe008a9fbe00841f7800e4ff0700f0
:101f20004f00780011003300f0ff2f00838f6c000a
:101f300006003b00040565000a00a7000800370002
:101f400009f0a6001000200008003700820f54009e
:101f5000838f5c00030039001000200001003e0068
:101f60000000200009f0a7000000ea004f05be00b5
:101f70004f04be000000e00000000600c70ade00bb
:101f8000f107b200f50fb20008003200e1cf4200c5
:101f9000020032000170a00024000500810f7000d3
:101fa000010032000408050044000500810f7000a4
:101fb00002003a00140005008502e900000040001c
:101fc00081c04800fcff3b000170a0002400050018
:101fd000020ab900001bb9000200b80081004200eb
:101fe000810043000000060060001000e08018003f
:101ff00060011900e081190000000600881f7800c8
:10200000000478005001be004000be000000420005
:1020100081804a0002014b0083814b00009cbe007e
:102020000294be00dc00070003003100480090006d
:102030000000e800400498004f047800000006000b
:10204000889fbe00000478008004eb005001be00b1
:102050004000be00d0000700010031001900200040
:1020600004005000858058000601590087815900fe
:10207000009cbe000294be00480090000900500081
:10208000400498004f04be00000006001200fa0051
:10209000889fbe008a9fbe008c1f78000205be008c
:1020a0000004be00f4b79f0085bf9f0096bf9f004d
:1020b000a7bf9f000000eb00e0b79f00d0b79f00d4
:1020c000c0b79f00b0b79f00a0b79f000006eb000d
:1020d0005fb197006fb097008000d0000000e00073
:1020e00015003d00e1b79f00010078000200e0000c
:1020f00001003d000000a000ac00070001003d0011
:102100000000a000af00070001003d000000a0009b
:10211000b200070001003d000000a00081000700a0
:1021200001003d000000a000b20007007c805700c5
:10213000b2ff070014003700e1b79f0001007800ec
:102140000200e00001003d000000a0009700070031
:1021500001003d000000a0009a00070001003d00c2
:102160000000a0009d00070001003d000000a0004d
:102170006c00070001003d000000a0009d0007006a
:102180007c805700aeff07006fb097000000e000b2
:102190000700350010002000010020006011b80089
:1021a00008047000898470000a0571008b85710035
:1021b0000c06e800f0032000800f5600c4ff340036
:1021c0006fb097000000e00006003d007fb297006e
:1021d0008fba97001fbb9700afbb97007c8057005a
:1021e00086ff07000802be000a03be006fa8970022
:1021f0000000e00004003a002fb29700bfb2970041
:102200004fb39700dfb397000400be000601be0085
:102210004f0678004f05be004f04be000080fa0054
:1022200000000600881f780018002000881f780032
:1022300096ff07008f87e9004f0478000000060032
:10224000801feb0091ff07008f87e9000000060068
:102250000800fa00889fbe008a9fbe008c1f78008d
:102260006e00070005003d00430007003000070036
:102270000c003d00330007000b003700e00f520058
:10228000e08f5a00e00f5b00e08f5b0006003d002e
:102290000400be000601be0053ff07000205be0099
:1022a0000004be001c0020002c000700ddff07001a
:1022b0000c00e000010032004bff07004f067800e1
:1022c0004f05be004f04be000080fa00000006006b
:1022d0000800fa00889fbe008a9fbe008c1f78000d
:1022e0004e00070002003d001c00200022000700f5
:1022f0000f00070001003d00120007001700070053
:10230000cfff07000c00e0000100320036ff07009d
:102310004f0678004f05be004f04be000080fa0053
:102320000000060090b79f000100d00080b79f001a
:10233000e00f5400e08f5c00e00f5d00e08f5d0077
:10234000000006000800be000a01be0026ff0700cc
:102350000205be000004be00000006000802be0028
:102360000a03be005fb09700efb097007fb19700ff
:102370008fb99700000006001bff0700010007004f
:1023800000000600b0b79f00c1b79f00d2b79f0002
:10239000e3b79f00000006000400e1000588e100ab
:1023a0000690e1000798e10000000600c0b79f001a
:1023b0000200d000b0b79f00afb097000100e0006e
:1023c00000000600b0b79f000100d000a0b79f003a
:1023d0009fb097000100e00000000600a0b79f003a
:1023e0000100d00090b79f008fb097000100e0007f
:1023f0000000060080b79f000804d0008984d20046
:102400000a85d2008b85d2005fb29700efb29700a9
:102410007fb397008fbb970000000600d9ff07002d
:102420000605be000404be000006eb00e00f5000ed
:10243000e08f5800e00f5900e08f590000000600bf
:10244000889fbe008a9fbe008c9fbe000404b80017
:102450000506b8008904460060854e000606b800ef
:102460000a054600e0854e000706b8008b054600c9
:10247000040eb800890446000a854e00050eb80017
:102480000a0546008b854e00060eb8008b054600f7
:102490000416b8000a0546008b854e000516b800e4
:1024a0008b054600041eb8008b0546000800be00e0
:1024b0000a01be004f06be004f05be004f04be001d
:1024c000000006000800fa00889fbe008a9fbe0038
:1024d000170007000605be000404be00e00f52000e
:1024e000e08f5a00e00f5b00e08f5b0008003d00ca
:1024f0000400be000601be00bbfe07000205be00d0
:102500000004be000f000700b7fe07000800070028
:102510000802be000a03be000a000700c8ff070049
:102520004f05be004f04be000080fa000000060008
:10253000e0b79f00f1b79f0082bf9f0093bf9f004d
:10254000000006006fb09700ffb097000fb997002a
:102550009fb99700000006000800fa00008fbe0037
:1025600060002000a1f7070020079800c614e200d1
:102570000b003a002e00900030a6880030a68000a4
:102580009e0090001100980030a680001e08780080
:1025900031a680000000eb00a00098001500370075
:1025a00030a68000300798003e0090002000900088
:1025b0000000e000040032003e0090002000900087
:1025c00030079800f8ff37003e009000ae00900002
:1025d000210098002e0090009e00900011009800ad
:1025e0002e0090001e087800ae0090000000eb0066
:1025f000a00098000080fa00000006000200fa0027
:1026000000000000c614e2000800320030a680007e
:10261000000f780030a680002000900030a68800cf
:102620001e0078009cf70700f6ff37000080fa00d4
:10263000000006000200fa00c414f800a0432b00ba
:10264000801f7800e0292100d2f70700e4875700b7
:10265000e0292100e0f7070080007800e029210050
:102660004610070030a68000000f78001e00e00032
:102670001a003200000000001e00e00014003200ca
:102680001e00780010009000801f78001e00780067
:1026900010007800801f780000442b00801f780015
:1026a000e0292100bbf70700e6875700e029210059
:1026b000c9f7070080007800e02921002f100700eb
:1026c0001e00780020009000000f7800eaff37001d
:1026d0005100200080442b00281007000080fa00e1
:1026e000000006001000fa00889fbe0000000000f5
:1026f000e40707000004e000fdff32006000b800be
:10270000008fbe000000eb00200798002e00900014
:10271000e80f50000c003c002e0090000000d0009c
:10272000618520000100400010007800cf80de00ad
:102730001e0f40005e9748002e0090000000e80049
:1027400020079800f1ff37001e00be009200200015
:102750000300200073fc0700008fbe00b814e200e5
:1027600002003a001e017800c2a58800c214e200ef
:1027700008003a0001a68000800c2000808f5000e5
:1027800004003400c4e2a8008001eb005307980065
:1027900098003700c0a58000cf80de0070fc0700e5
:1027a0000004be00c0a58000cf80de006cfc0700e6
:1027b000a2702d0033ba230094fc07000001be0074
:1027c0000800be00c6fc07000004be001e00be00dc
:1027d00063fc07000001be000800be001dfd0700ed
:1027e0000000e00015003500c0a58000cf80de00ad
:1027f0005bfc07000004be00c0a58000cf80de00a7
:1028000057fc0700a2702d0033ba23007ffc07009d
:102810000001be000800be00b0fc07000004be00be
:102820001e00be004efc07000001be000800be00f6
:102830000afd07000000e00018003400be14e200aa
:1028400067003a00c4c2a8001000200030079800ba
:1028500004a6800044079800c214e200040032007d
:102860000000eb00400798000000eb0010a6880075
:102870003e009000ce00900037ff070020a68000a9
:102880000000e80020a688000000eb0000a68800f9
:1028900010002000f0a588005100370061362100ab
:1028a000e0a580000000d000010040001e08780074
:1028b000e0a580000000e800e0a58800e0a5800019
:1028c000e40f500002003a000000eb00e0a5880091
:1028d000d0a580000000e800d0a58800d0a5800029
:1028e000ea0f50003e003a000000eb00d0a588003f
:1028f0006000b800008fbe000000eb0020079800c9
:102900002e009000e30f50000c003c0061362100c7
:102910002e0090000000d000010040001000780060
:10292000cf80de001e0f40005e9748002e00900012
:102930000000e80020079800f1ff37001e00be00ed
:1029400060079800710798006e009000fe009000ec
:10295000e00f5000e08f580006003d006e0190002f
:10296000fe01900063014100e08149006207980088
:10297000730798006e019000fe0190004e1add0072
:102980004210de0000007200c298de00008fbe0020
:102990001e007800c0a58800c4c2a900f0a5800070
:1029a000e10f50000e003a000000eb0030079800e5
:1029b00001a68000410798003e009000ce009000e4
:1029c000e5fe070020a680000000e80020a68800a1
:1029d0000000eb0000a688000000eb00f0a58800d6
:1029e00000a680000000e80000a688001200200079
:1029f000520798005e0090004f04be000080fa006d
:102a0000000006000800fa00000f78001107980087
:102a10000000eb00300798000000eb002007980052
:102a20002e009000e50f500015003c002e00900095
:102a30000000d0001e0140002e0090008000d00059
:102a40001e0090000080400012017800900f51009d
:102a500004003a003e0090000000e80030079800b3
:102a6000030037003e0090000000e90030079800a6
:102a70002e0090000000e80020079800e8ff3700d3
:102a80003e0090000080fa00000006002000fa00de
:102a9000c614e2000400320030a68000200090003e
:102aa0000000e00003003a000080eb00700f980087
:102ab0008900370030a6800020009000000f9800a9
:102ac000f20047000080eb00800878000080eb00f7
:102ad000900098000080eb00a00098000080eb00c0
:102ae000b00098000080eb00c00098000080eb0070
:102af000d00098000000eb00300798000000eb00c9
:102b0000400798000e0890000000e00039003200f5
:102b10000e08900010007800100798000e08900032
:102b200010009000200798001e0090000000e000b8
:102b300005003a003e009000ae0090000100400009
:102b400030079800270037002e009000e30f500058
:102b500005003c003e009000ae00900001004000e7
:102b6000300798001f0037003e009000f10f500022
:102b700007003400f20047004e0090000000d00033
:102b800081004000200020008008780010003700fd
:102b90003e009000e30f500007003400f2004700b1
:102ba0004e0090000000d000810040001000200086
:102bb0008008780006003700f20047004e009000c1
:102bc0000000d000810040000000eb008008780089
:102bd0000000eb00300798004e0090000000e80075
:102be000400798000e08900020009000000f980009
:102bf000c4ff37003e009000f10f50000700340082
:102c0000f20047004e0090000000d000810040001c
:102c10002000200080087800100037003e0090005f
:102c2000e30f500007003400f20047004e00900010
:102c30000000d000810040001000200080087800d3
:102c400006003700f20047004e0090000000d00060
:102c5000810040000000eb00800878000080eb005d
:102c6000600798000000eb00000f78000000eb0008
:102c7000500798005e009000f90f500014003c00cf
:102c8000de009000c00020000008b800621621009d
:102c900080004100720047005aff0700700798004b
:102ca000fe0090006e009000808f50000400340001
:102cb0007e009000600798005e019000020f78008f
:102cc0005e0090000000e80050079800e9ff370020
:102cd0001e007800700f98007e0890000080fa00b7
:102ce000000006000000fa000000eb0000a68800cb
:102cf0001000200010a688000000eb0020a688002d
:102d00000000eb00c0a588000000eb00d0a5880003
:102d10000000eb00e0a588000000eb00f0a58800b3
:102d20000000eb00a0a78800c4c2a900c4e2a9006b
:102d3000c522a9005806070010c0b3006b040700a5
:102d4000003e290041002000b20007000080fa0088
:102d5000000006000200fa000000eb00000f7800ff
:102d6000e0ff0700c522a8005efe07000000e000ab
:102d7000fdff3a004c06070044ff0700000f7800f3
:102d80001efe0700c522a9001e0078000080fa0080
:102d9000000006005a00fa0030002000202f9800a2
:102da0002e289000302f98000a020700e20d07003d
:102db00040002000770007000000eb00002f980083
:102dc0000000eb00102f9800210320008e804000af
:102dd0000e28900000804000170e07000000e00061
:102de00009003200210320008e8040000e28900050
:102df000008040001000fb00102f98000e2890006b
:102e00000000e800002f98002ed09000ea4f5000fc
:102e1000030032002ed09000ed4f5000eaff3a0040
:102e2000210320008e8040000e289000808040000a
:102e30000040eb0080487800200320000e00400096
:102e40001000fb00402f9800c0062000ce28900004
:102e5000808f50001c003200c0062000ce28900059
:102e6000808f500005003c0090062000ce28900086
:102e7000808f5000060032003800370030072000f5
:102e8000ce289000808f50001f00320033003700a2
:102e9000e0442b00801f78000e007800bdf507008d
:102ea0008f87e9000e007800cbf5070080007800de
:102eb0000e007800310e07003c0e07000000e00015
:102ec000fdff3a00bcff3700a2ff0700202f98004b
:102ed00030452b00801f78000e007800adf507000c
:102ee0008f87e9000e007800bbf5070080007800ae
:102ef0000e007800210e07002c0e07000000e000f5
:102f0000fdff3a00acff3700600520000e004000d6
:102f1000110020005c00070000d4200031002000d8
:102f20003c00070080452b00801f78000e007800d1
:102f300098f507008f87e9000e007800a6f50700d6
:102f4000800078000e0078000c0e0700170e0700b6
:102f50000000e000fdff3a0097ff3700d0452b004e
:102f6000801f78000e0078008af507008f87e9003f
:102f70000e00780098f50700800078000e007800b9
:102f8000fe0d0700090e07000000e000fdff3a00fb
:102f900089ff37000600fa00000f78006000b800d3
:102fa00010079800210798001e007800cf80de00ef
:102fb000022424000202b800f20020000283b900bb
:102fc0000501780006014100032424000388b900ac
:102fd00000014100820278001e009000ae009000c7
:102fe000840f5000858f580008003d00000000004d
:102ff0001e009000ae00900061004000e08048009c
:103000001007980021079800e7ff37000080fa00ba
:10301000000006000800fa00008fbe006000b80043
:1030200020079800310798002e009000be00900005
:10303000be0f5000ae8f580008003d000000000099
:103040002e009000be00900061004000e08048002b
:103050002007980031079800f3ff37000080fa003e
:10306000000006000000fa00270207009a0207008d
:10307000401f200028020700c0e02f005202070076
:103080000080fa00000006000a00fa00000f780035
:1030900011079800f90007008305070000122a00b5
:1030a00071002000dbff07000000eb002007980004
:1030b000ae0090001e009000808f50003c003d004c
:1030c0002e0090000000d0001e004000100078008c
:1030d000400798000000eb00300798003e00900089
:1030e000e50f500026003c00ce009000600020005c
:1030f0000008b8003e019000020040000000d0002f
:1031000061162100010040001000e0001c003500a5
:1031100000000000d614e200feff3a00ce0090004e
:10312000600020000008b8003e019000020040004e
:103130000000d000611621000100400011002000b5
:10314000908f100004003a00c112200000f421000a
:10315000d700070003003700014b200000f42100d6
:10316000d300070000a8210061002000a9ff07008c
:103170003e0090000000e80030079800d7ff3700bd
:103180001e0090008000e9002e009000810f50008a
:1031900003003d00007c2200910020009dff0700fd
:1031a0002e0090000000e80020079800c0ff3700c4
:1031b000c90007000080fa0000000600811f7800a7
:1031c000801f7800f0ff2700c01288000030200028
:1031d0000000b300d0128800de02a9000000000049
:1031e000e002a9009001090000000000e002a80030
:1031f00041e2a8004602ae00feff3700f0ff2700c4
:10320000c0128800004020003001b300d0128800b6
:103210004602ae00feff3700f0ff2700c012880014
:10322000001020000030a0000040a000d012880054
:103230004602ae00feff3700f0ff2700c0128800f4
:1032400000202000d01288004602ae00feff3700aa
:10325000f0ff2700c0128800006020000010a000ce
:10326000d01288004602ae00feff3700f0ff2700b4
:10327000c012880000702000f005b300d012880052
:103280004602ae00feff370001f020003012800041
:10329000010060000000e000fcff3a0030128000f6
:1032a000010060000000e000fcff320030128000ee
:1032b000010060000000e000fcff3a0030128000d6
:1032c000010060000000e000fcff32004662ae003a
:1032d00002003700801280009012800041e2a900b5
:1032e000f01e2000101288004362a8004342a8008c
:1032f0008920a900a8c0a800a8a0a900a880a900aa
:103300009120a80041e2a8004f007800cf0078008b
:1033100000000600801f78004022ef004222ef00ec
:103320004422ef004822ef004c22ef00c6e2a80042
:10333000e5a2a900e582a800e5e2a900e5c2a9008e
:103340004002a9004022a90040a2a9004122a900f0
:1033500040c2a8004102a9004142a900f00e20008d
:10336000101288004362a9004342a80030002000e8
:10337000201288004c02a8004802a8008920a90059
:103380009120a90041e2a9004f007800000006004a
:103390008920a900809fbe00829fbe00801280000d
:1033a00090128000a0128000b0128000d414e200bd
:1033b00026003a00d814e200240032003400f8005d
:1033c0004400f8004440a800d0a68000a001880076
:1033d000e1a78000301a0200000000001100780010
:1033e0000000a100c0128800301a02000000000096
:1033f000110078000000a100d0128800301a0200ed
:1034000000000000110078000000a100e012880018
:10341000301a020000000000110078000000a10036
:10342000f0128800d8b4ed00d8b4ed00e1a7880010
:10343000a1018000d1a688004400f9003400f90001
:103440004f01be004f00be0000400600d634ef0022
:10345000d4b4ef004f01be004f00be000040060094
:10346000e280400004003900a1018000e1804000ba
:10347000a101880001002800000006000200fa00f7
:10348000e202a8000000eb00000f7800f0702200bc
:103490009e0f100002003c001e0fe800fbff3700eb
:1034a0009cff070045ff07000080fa0000000600af
:1034b0000400fa00000f780011079800d6b4ef005e
:1034c000d434ef009e0090001e0078000600070034
:1034d0000080fa00000006000000fa00e202a900e5
:1034e0000080fa0000000600811f7800821f78002b
:1034f0004100dd00030037004f017800cf00780065
:1035000000000600c1a688000001eb0041462b0028
:103510008100400003003900020028008280400042
:10352000120020004400f8003400f8004440a800d5
:103530000000200002004000a00188000000000000
:10354000dc1a020000000000110078000000a10059
:10355000c0128800dc1a0200000000001100780090
:103560000000a100d0128800dc1a02000000000058
:10357000110078000000a100e0128800dc1a0200af
:1035800000000000110078000000a100f012880087
:10359000d8b4ed00d8b4ed00e1a78800a101800007
:1035a000d1a688003400f900000000004400f900b2
:1035b0008920a900d0ff3700e280400004003900d4
:1035c000a1018000e1804000a101880001002800e5
:1035d000000006000000fa00c4c2a900c4e2a9006d
:1035e000c522a900c582a900c542a900c5a2a9009b
:1035f000c5c2a900c5e2a900c0c2a900c0e2a900d5
:10360000c122a900c182a900c142a900c1a2a9008a
:10361000c1c2a900c1e2a900d022a900cc22a90000
:10362000d042a900cc42a900e2e2a900e302a9002d
:10363000e802a900e822a900dee2a900df02a90051
:10364000e402a900e422a900e202a900de02a90026
:10365000d602a900d622a900d642a900d662a900a6
:10366000d682a900d6a2a900d6c2a900d6e2a90096
:10367000d202a900d222a900d242a900d262a90096
:10368000d282a900d2a2a900d2c2a900d2e2a90086
:10369000d1a2a900cda2a900e842a900e862a90030
:1036a000e442a900e462a900de22a800dec2a8006c
:1036b000e4c2a800e4e2a800e502a800e522a80010
:1036c000d302a800d322a800d342a800d362a80046
:1036d000d382a800d3a2a800d3c2a800d3e2a80036
:1036e0000080fa000000060000a0fe000200fa00c0
:1036f00086c0a900c814e2000b00340060a6800058
:103700000000e80060a6880080a680000000e900b4
:1037100080a68800d014e2000e003d00300020009a
:1037200080a688000b00370060a680000000e9003a
:1037300060a6880080a680000000e80080a68800bf
:1037400080a68000e30f5000020034000000eb0070
:1037500080a6880080a68000000f78001e007800f8
:10376000e10f5000130032001e007800e10f5000fe
:1037700004003c001e0078000000e0000800320059
:103780001a0037001e007800e20f50000e003200d1
:103790001e007800e30f50001000320013003700c5
:1037a000d602a900d622a800d642a900d662a80057
:1037b0000e003700d602a900d622a800d642a800e3
:1037c000d662a90009003700d602a800d622a900b7
:1037d000d642a800d662a90004003700d602a8008d
:1037e000d622a900d642a900d662a8000080fa001d
:1037f0000080fe000040060000a0fe000200fa006b
:1038000086a0a900ca14e2000b003d0070a680004b
:103810000000e90070a6880090a680000000e90082
:1038200090a68800d214e2000e003d003000200077
:1038300090a688000b00370070a680000000e8000a
:1038400070a6880090a680000000e80090a688007e
:1038500090a68000e30f5000020034000000eb004f
:1038600090a6880090a68000000f78001e007800c7
:10387000e10f5000130032001e007800e10f5000ed
:1038800004003c001e0078000000e0000800320048
:103890001a0037001e007800e20f50000e003200c0
:1038a0001e007800e30f50001000320013003700b4
:1038b000d682a900d6a2a800d6c2a900d6e2a80046
:1038c0000e003700d682a900d6a2a800d6c2a80052
:1038d000d6e2a90009003700d682a800d6a2a90026
:1038e000d6c2a800d6e2a90004003700d682a800fc
:1038f000d6a2a900d6c2a900d6e2a8000080fa008c
:103900000080fe00004006000000fa0031ff0700c2
:103910000080fa00000006000400fa00000f7800a2
:103920001e00e00006003a0021e1a900d602a9002d
:10393000d622a900d642a900d662a90020003700ed
:1039400021e1a9001e00780040a688000000eb00dd
:1039500000098800011220009140780000c3b300e4
:1039600000c0700020e1b7000000eb00c008880034
:103970001e017800120798001e0090000000e00071
:1039800003003d001e0190000201ea0012079800aa
:103990001e0190006110b900f1f707000001be00a0
:1039a0000000200011762400aef80700eff80700b1
:1039b000e008880086c0a9008ec0a80021e1a80008
:1039c0000080fa00000006000400fa00000f7800f2
:1039d0001e00e00006003a001fe1a900d682a900ff
:1039e000d6a2a900d6c2a900d6e2a90020003700bd
:1039f0001fe1a9001e00780050a688000000eb001f
:103a0000f0088800e11120009140780000c3b30065
:103a100000c070001ee1b7000000eb00a0088800a5
:103a20001e017800120798001e0090000000e000c0
:103a300003003d001e0190000201ea0012079800f9
:103a40001e0190006110b900c5f707000001be001b
:103a5000000020001176240082f80700c3f8070058
:103a6000d008880086a0a9008ea0a8001fe1a800a9
:103a70000080fa00000006000000fa0060a6800046
:103a80000080fa00000006000200fa00000f780033
:103a90001027fc001e00780060a688000200fc00d1
:103aa0000080fa00000006000000fa0070a6800006
:103ab0000080fa00000006000200fa00000f780003
:103ac0001027fc001e00780070a688000200fc0091
:103ad0000080fa00000006000000fa000000eb0081
:103ae000800888000111200091407800f0ccb300dc
:103af00000c0600010e1b7000000eb003008880053
:103b0000205c20006008880084c0a9008cc0a80048
:103b100011e1a8000080fa00000006000000fa0091
:103b200011e1a9000080fa00000006000800fa0078
:103b3000000f780011079800f0a780002007980078
:103b40002e0090000000e0000b0032002e009000dc
:103b5000300090009e0f500003003a00110020003a
:103b6000310798001f0037002e00900040009000a1
:103b700020079800f2ff3700a00020001bf207008a
:103b8000200798002e0090000000e00002003a009c
:103b90001000200097f207002e0090009e00900079
:103ba00001087800ae0090000000eb009000980043
:103bb000ae00900010c0b300c04098002e009000ee
:103bc0009e007800310098002e009000f1a7800040
:103bd000410098002e009000f0a7880011002000fe
:103be000310798003e0090000080fa0000000600b7
:103bf0000800fa00000f78000000eb0010079800a2
:103c0000f0a78000200798002e0090000000e00040
:103c10001a0032002e009000300090009e0f5000dd
:103c200010003a001e0090000000e0000500320085
:103c30009e0090002e00900040009000c000980070
:103c4000030037002e00900040009000f0a788008d
:103c50002e00900010f2070010002000300798009e
:103c6000080037002e009000100798002e009000ea
:103c70004000900020079800e3ff3700200020005c
:103c8000300798003e0090000080fa000000060017
:103c90000800fa00000f780011079800f0a78000d4
:103ca000200798002e0090000000e0000e00320077
:103cb0002e009000300090009e0f500006003a0049
:103cc0002e0090009e009000010878001000200057
:103cd00030079800060037002e009000400090004a
:103ce00020079800efff37002100200031079800df
:103cf0003e0090000080fa00000006000600fa0076
:103d0000000f7800f0a78000100798001e009000b8
:103d10000000e0000e0032001e0090003000900015
:103d20009e0f500006003a009e0090000000eb003d
:103d3000900098001000200020079800060037002f
:103d40001e0090004000900010079800efff370021
:103d500020002000200798002e0090000080fa002c
:103d6000000006000600fa00000f7800f0a78000af
:103d7000100798001e0090000000e0000e003200c6
:103d80001e009000300090009e0f500006003a0088
:103d90009e0090000040eb00c04098001000200002
:103da00020079800060037001e0090004000900099
:103db00010079800efff3700200020002007980030
:103dc0002e0090000080fa00000006000600fa00b5
:103dd000000f7800f0a78000100798001e009000e8
:103de0000000e0000e0032001e0090003000900045
:103df0009e0f500006003a009e00900010c0b300d5
:103e0000c0409800100020002007980006003700ee
:103e10001e0090004000900010079800efff370050
:103e200020002000200798002e0090000080fa005b
:103e3000000006003600f800809fbe00829fbe0092
:103e4000849fbe00869fbe000200fa00f0a780009b
:103e5000000f780084c0a9001e00e0001c003200a2
:103e60001e00780040409000e14f500014003a00de
:103e70001e0078001000e000110032009e00780063
:103e80001e007800100090000000e80090009800ec
:103e90001e0178001e0078009000e90012009000da
:103ea000810f5000060036001e00780030009000a0
:103eb000000001009e0078000000eb0090009800d8
:103ec0001e00780040009000000f7800e2ff3700ed
:103ed0000080fa004f03be004f02be004f01be003b
:103ee0004f00be003600f900004006000200fa0054
:103ef000004f780010c0b3009e4f100003003a003e
:103f000010c0b30052e8b700020037000040eb00d9
:103f100052e8b7000000eb00001588000000eb003d
:103f2000101588000000eb00201588000000eb0051
:103f300030158800a802a800a822a800a842a9005d
:103f4000a862a900a882a900a8a2a900a8c2a900e5
:103f5000a8e2a900a902a900a922a900a942a900d2
:103f6000a962a900a982a900a9a2a900a9c2a900c1
:103f7000a9e2a900aa02a900aa22a900aa42a800af
:103f8000aa62a800aa82a800aaa2a900aac2a9009f
:103f9000aae2a900ab02a900ab22a900ab42a9008a
:103fa000ab62a900ab82a900aba2a900abc2a90079
:103fb000abe2a900112a200091407800c0cfb300e5
:103fc00000c06000a1e2b700a042a800012a2000c2
:103fd0009140780000ceb30000c07000a0e2b700ae
:103fe000212a20009140780030ccb30000c060004e
:103ff0000034a000a2e2b700a342a800512a20008a
:104000009140780000ceb30000c060000004a00022
:10401000a5e2b7005248e20007003200412a200022
:104020009140780000ccb30000c060003041b30084
:10403000a4e2b70007003700412a20009140780031
:1040400000ccb30000c0600071c2b300014070003a
:10405000a4e2b7008560a9008d60a800a1e2a800d5
:104060005248e20005003a0000000000b1a78000bd
:1040700000032000808f5000fbff36000080fa0014
:1040800000000600809fbe00821f78000a00fa0030
:104090000040eb0050e8b7000040eb0051e8b700eb
:1040a0008560a9005248e200230032000028200069
:1040b000000f7800a0a780000000d00062852000db
:1040c000820040001e007800900878001e8fe800f3
:1040d000a0a780000000d00062a520008200400060
:1040e0001e007800900878001e8fe800a0a78000ce
:1040f0000000d00062c52000820040001e00780051
:10410000900878001e8fe800a0a780000000e8005b
:1041100080007800a1a78800f00f2000808f500059
:104120004d0136000000eb00a0a7880010c0b300ce
:1041300051e8b70048013700c00120005015880041
:10414000212a20009140780030ccb30000c06000ec
:104150000034a000a2e2b700412a2000914078007c
:1041600000ccb30000c0600071c2b3000140700019
:10417000a4e2b700d0c3b3005348e3000f003a00f5
:10418000c00f200050158800212a2000914078009f
:1041900030ccb30000c060004041b300a2e2b700e1
:1041a000412a20009140780000ccb30000c060009c
:1041b0003041b300a4e2b7005e003700e0c3b300b3
:1041c0005348e3002c003a00212a20009140780057
:1041d00030ccb30000c060000044a000a2e2b700f1
:1041e000412a20009140780000ccb30000c060005c
:1041f0007041b300a4e2b70054c8bf000080fb00c8
:10420000100798001e009000e10f500011003200ce
:104210009e009000e18f500004003c001e019000c1
:104220000200e00008003200420037001e0090004b
:10423000e20f50000a0032009e009000e38f500011
:104240000a0032003b003700c011210050158800e1
:1042500038003700c0212200501588003500370093
:10426000c04124005015880032003700c08128006a
:10427000501588002f0037003085200022c0b30081
:10428000904f11002b003a00212a20009140780025
:1042900030ccb30000c060000044a000a2e2b70030
:1042a000412a20009140780000ccb30000c060009b
:1042b0007041b300a4e2b70054c8bf000080fb0007
:1042c000200798002e009000e10f500011003200ee
:1042d000ae009000e18f500004003c002e019000e1
:1042e0000200e00008003200120037002e009000ab
:1042f000e20f50000a003200ae009000e38f500041
:104300000a0032000b003700c01121005015880050
:1043100008003700c0212200501588000500370032
:10432000c04124005015880002003700c0812800d9
:104330005015880000282000000f7800a0a78000fa
:104340000000d00062852000820040001e0078003e
:10435000900878001e8fe800a0a780000000d00021
:1043600062a52000820040001e00780090087800be
:104370001e8fe800a0a780000000d00062c52000ca
:10438000820040001e007800900878001e8fe80030
:10439000a0a780000000e80080007800a1a78800a6
:1043a000f00f2000808f5000020036000000eb006c
:1043b000a0a78800e0c3b3005348e3001e003a0002
:1043c000b0a780000000e80080007800b1a7880056
:1043d00010032000808f5000020036000000eb0028
:1043e000b0a78800b0a780000000d00062e52000e0
:1043f000820040001e007800900878001e8fe800c0
:10440000b0a780000000d000a2eb20008200400096
:104410001e007800900878001e8fe800b0a780008a
:104420000000d000e2f12000820040001e00780071
:10443000900878007e003700f0c3b3005348e300d3
:1044400038003a0054c8bf000080fb0030079800d5
:104450003e009000e10f500017003200be009000b7
:10446000e18f500004003c003e0190000200e0009b
:10447000080032006e0037003e009000e20f50004e
:1044800016003200be009000e38f50001c00320086
:10449000670037001e00780010007800107c88004c
:1044a0001e8fe8001e00780010007800507c880005
:1044b000e2e2a8005e0037001e00780010007800dd
:1044c000207c88001e8fe8001e0078001000780015
:1044d000607c8800e302a800550037001e007800c9
:1044e00010007800307c88001e8fe8001e007800e5
:1044f00010007800707c8800e802a8004c003700ab
:104500001e00780010007800407c88001e8fe800b4
:104510001e00780010007800807c8800e822a80047
:10452000430037003085200032c0b300904f1100a7
:104530003f003a0054c8bf000080fb0040079800cd
:104540004e009000e10f500019003200ce009000a4
:10455000e18f500004003c004e0190000200e0009a
:1045600008003200320037004e009000e20f500089
:104570001a003200ce009000e38f5000220032007b
:104580002b0037001e00780010007800907c880017
:104590001e8fe8001e00780010007800d07c880094
:1045a000e2e2a90010c0b30054e8b70020003700d1
:1045b0001e00780010007800a07c88001e8fe800a4
:1045c0001e00780010007800e07c8800e302a9005b
:1045d00020c0b30054e8b700150037001e00780073
:1045e00010007800b07c88001e8fe8001e00780064
:1045f00010007800f07c8800e802a90030c0b30009
:1046000054e8b7000a0037001e0078001000780058
:10461000c07c88001e8fe8001e0078001000780023
:10462000007d8800e822a9000040eb0054e8b700b4
:104630003185200011407800004178000040e800fa
:1046400080487800f0c3b300804f5100020036006c
:104650000040eb0053e8b70010c0b30050e8b700cb
:104660000080fa004f0178004f00be0000400600b5
:104670000000fa0050c8bf000080fb000080fa0074
:10468000000006000000fa0051c8bf000080fb00d7
:104690000080fa00000006000000fa00a1e2a80075
:1046a0000080fa00000006000000fa00a1e2a90064
:1046b0000080fa00000006000200fa00000f7800f7
:1046c0009e007800001020000008b800a2a780001b
:1046d000020040000000d000618520000100400081
:1046e000100078000080fa00000006000c00fa00bc
:1046f000000f7800110798006000b80020079800ac
:1047000031079800200020009e0f100030003e006e
:104710001e0090000000e0002d0032009e0090007e
:1047200000102000808f500029003e000000eb00a8
:1047300040079800a1a780001e0090000080500054
:104740001110200080804000f00f200000806000e9
:1047500050079800ce0090001e009000808f5000ff
:104760001b0031009e007800001020000008b800f7
:104770005e019000020040000000d0006185200032
:1047800001004000100078006101b9002e00900087
:10479000be00900000004100818049002007980081
:1047a000310798004e0090000000e8004007980094
:1047b0005e0090000000e8000210200011000900d7
:1047c0000200d8008000fd0050079800e1ff37008c
:1047d0001e0090006101b8002e009000be00900005
:1047e00050f407000080fa00000006000800fa00fc
:1047f000000f78000000eb002007980070382100bf
:10480000300798000000eb00100798009e00900011
:10481000f00f2000808f50002f003c009e00780099
:10482000001020000008b8001e01900002004000a7
:104830000000d00062852000820040002e00900021
:10484000910f10000b0034009e0078000010200033
:104850000008b8001e019000020040000000d000d7
:1048600061852000010040001000780020079800ba
:10487000150037009e007800001020000008b800e6
:104880001e019000020040000000d0006285200060
:10489000820040003e009000910f10000a003d0091
:1048a0009e007800001020000008b8001e01900053
:1048b000020040000000d00061852000010040009f
:1048c00010007800300798001e0090000000e800fb
:1048d00010079800cdff3700ae0090003e0090001a
:1048e000008050000080fa00000006000800fa0076
:1048f000000f780011079800220798002e00900002
:104900000000e00022003200ae0090000010200005
:10491000808f50001e003e000000eb003007980022
:10492000be0090002e009000808f500018003100d3
:10493000ae0090003e009000008050008000d0004b
:104940001e009000008040000082e9009e01780077
:10495000a1a780003e00900080804000f00f200062
:1049600000816000001020000018b8000000410025
:104970000000d0006185200001004000100a78008e
:104980003e0090000000e80030079800e4ff370088
:104990000080fa00000006001c00fa000000eb0096
:1049a0001007980020fd200035030700000f780055
:1049b0000000eb00200798002e0090009e0f500092
:1049c000ba003d000000eb0040079800ae009000e8
:1049d000d00120000008b80082fd20000200400045
:1049e0001004e00002003a00100020004007980088
:1049f0008000eb0051079800ae009000d00120002d
:104a00000008b80092fd2000020040001004e00001
:104a100002003a001000200050079800ce009000dd
:104a20005e01900082806000610798000000eb004a
:104a300070079800ae009000d00120000008b80078
:104a4000a2fd2000020040001004e00002003a0035
:104a50001000200070079800ee0090007e0190008a
:104a600082806000010f98000000eb00100f98009a
:104a7000ae009000d00120000008b80072fd2000b8
:104a80000200400081c0b30090cf100002003a0045
:104a900012002000120f98008e0890001e0990004e
:104aa000028060000000e0007c003200ae00900058
:104ab000d00120000008b80022fd200000004100c5
:104ac0007e0307000000eb00200f9800ae0090006e
:104ad000d00120000008b800b2fd20008200400094
:104ae00050c6b300914f100002003a0010002000a1
:104af000200f98008000eb00310f9800ae0090006e
:104b0000d00120000008b800c2fd20008200400053
:104b1000d0c2b300914f100002003a0010002000f4
:104b2000300f9800ae0890003e099000828060002f
:104b3000410f98000000eb00500f9800ae0090006d
:104b4000d00120000008b800d2fd20008200400003
:104b500000c7b300914f100002003a00100020007f
:104b6000500f9800ce0890005e099000028060000f
:104b70000000e000490032000000eb003007980020
:104b80003e009000e30f500022003c009e00900089
:104b9000b00020000008b8003e0190000200400074
:104ba000410f210081014000ae009000d0012000a3
:104bb0000008b8003e0190000200400022fd2000e5
:104bc00002004000904978009e009000b000200054
:104bd0000008b8003e01900002004000a10f210033
:104be00081014000ae009000d00120000008b80014
:104bf0003e0190000200400022fe20000200400022
:104c0000904978003e0090000000e80030079800ce
:104c1000dbff37009e009000b00020000008b800c5
:104c2000e20f2100820040000040eb008048780045
:104c300040002000300798003e009000e50f500033
:104c400013003c009e009000b00020000008b80057
:104c50003e01900002004000410f21008101400010
:104c6000ae009000d00120000008b8003e01900086
:104c70000200400022fd2000020040009049780020
:104c80003e0090000000e80030079800eaff37007f
:104c90001e0090000000e800100798002e00900011
:104ca0000000e8002007980043ff37001e00900036
:104cb0000080fa00000006000600fa00201621001d
:104cc000f200070034ff0700000f78001e00e0002c
:104cd0000b003200a00f210096010700400f2100b9
:104ce0006703070020479800201621009101070064
:104cf0002e4090000000fb002007980002003700c3
:104d000030062000200798002e0090000080fa0056
:104d1000000006003000fa0020c0b300004f780009
:104d200020c5b3001047980060c2b3002047980028
:104d30000040eb00304798000040eb0040479800ef
:104d400080c7b3005047980030c0b3006047980058
:104d5000710020000e007800880607000000eb00bc
:104d6000301798000040eb00006f9800e800470003
:104d70003e109000008040002f0607000000e00079
:104d800008003200e80047003e109000008040001c
:104d900010407800006f98003e1090000000e8007e
:104da000301798000e689000e34f5000efff3a0074
:104db00068004700304090000000fb00e600400023
:104dc0003e109000810f5000e8ff3500e8004700da
:104dd0003e109000808040000040eb00804878004a
:104de0000000eb003017980068004700604090001a
:104df0008000fb003e109000810f50000d003d0030
:104e0000a10220008e8040003e10900000814000f2
:104e1000e80047003e10900000804000670040001e
:104e2000104978003e1090000000e800301798000c
:104e3000edff3700a10220008e8040003e10900060
:104e4000808040000040eb0080487800a0022000f5
:104e50000e004000a20020008000eb00faed0700e9
:104e60000080fa00000006001600fa0020c0b3001f
:104e7000004f780020c5b30010479800a0c1b300d0
:104e8000204798000040eb00304798000040eb00be
:104e900040479800c0c6b3005047980030c0b300e8
:104ea00060479800710020000e007800330607006c
:104eb0000000eb00100f98000040eb0040579800f6
:104ec000e80047001e08900000804000da05070057
:104ed0000000e00008003200e80047001e089000d3
:104ee0000080400010407800405798001e08900055
:104ef0000000e800100f98004e509000e34f500063
:104f0000efff3a0068004700304090000000fb00cf
:104f1000e60040001e089000810f5000e8ff3500b9
:104f2000e80047001e089000808040000040eb0031
:104f30008048780068004700604090000000fb0057
:104f40000080fa00000006001600fa0020c0b3003e
:104f5000004f780020c5b3001047980010c1b3007f
:104f60002047980010c0b300304798000040eb0085
:104f70004047980040c6b3005047980010c0b300a7
:104f80006047980030c0b30070479800810020004f
:104f90000e007800f90507000000eb00100f9800e4
:104fa0000040eb0040579800e80047001e089000c2
:104fb00000804000a00507000000e000080032006b
:104fc000e80047001e089000008040001040780074
:104fd000405798001e0890000000e800100f98004d
:104fe0004e509000e34f5000efff3a00680047003a
:104ff000304090000000fb00e60040001e089000da
:10500000810f5000e8ff3500e80047001e089000bf
:10501000808040000040eb00804878006800470036
:10502000604090000000fb000080fa0000000600d5
:105030000400fa000de2a900de62a900e262a90004
:105040006000b800008fbe001e00be0044f20700e2
:105050006266260063662400fef207000000e0009e
:1050600005003d0010002000010020001e0f400040
:105070005e974800f4ff3700e262a800de62a800f5
:105080002d0507000080fa00000006002c00fa0041
:10509000000f78008e80e80020c0b30080487800c0
:1050a0008e80e80020c5b300904098008e80e80014
:1050b00060c1b300a04098008e80e8000040eb0083
:1050c000b04098008e80e8000040eb00c04098009f
:1050d0008e80e80080c6b300d04098008e80e80043
:1050e00030c0b300e04098000e80e800710020005e
:1050f000a20507000000eb00401798000040eb00fd
:10510000206f9800ea0047004e1090000080400099
:10511000490507000000e00008003200ea004700ef
:105120004e1090000080400010407800206f9800e2
:105130004e1090000000e800401798002e68900084
:10514000e34f5000efff3a006a0047003040900004
:105150000080fb00e60040004e109000810f5000e0
:10516000e8ff3500ea0047004e10900080804000c4
:105170000040eb00804878000000eb0040179800ea
:105180006a004700704090008080fb004e10900045
:10519000810f50000b003d004e1090001e0140009a
:1051a000ea0047004e109000008040006800400078
:1051b000104978004e1090000000e8004017980059
:1051c000efff37004e1090009e0040000040eb00c3
:1051d000804878006a004700604090000000fb00b3
:1051e0000080fa00000006003600fa00000f780088
:1051f0008e80e80020c0b300804878008e80e800f0
:1052000020c5b300904098008e80e80030c0b30005
:10521000a04098008e80e8000040eb00b04098006d
:105220008e80e8000040eb00c04098008e80e800cf
:1052300050c5b300d04098008e80e80030c0b30065
:10524000e04098000e80e800710020004b05070048
:105250000000eb00101f98000040eb004077980022
:10526000ea0047001e18900000804000f20407008a
:105270000000e00008003200ea0047001e1890001d
:105280000080400010407800407798001e18900081
:105290000000e800101f98004e709000e34f50008f
:1052a000efff3a006a004700304090000000fb002a
:1052b000e60040001e189000810f5000e8ff350006
:1052c000ea0047001e189000808040000040eb007c
:1052d000804878000000eb00101f98006a0047002b
:1052e000704090008000fb001e189000810f50005d
:1052f0000b003d001e1890001e014000ea00470010
:105300001e1890000080400068004000104978009e
:105310001e1890000000e800101f9800efff3700f3
:105320006a004700604090000000fb000080fa0027
:10533000000006003000fa00000f78001e00780020
:10534000a5ec0700701798008e80e80020c0b3001d
:10535000804878008e80e80020c5b3009040980017
:105360008e80e80070c1b300a04098008e80e800f5
:105370006e6890000040e800b04098008e80e80021
:105380000040eb00c04098008e81e8000e80e800ed
:105390008e80e80010419000214090008040410044
:1053a0000e80e8003040900000c04000d0419800de
:1053b0000e80e800ee689000614098000000eb006d
:1053c00050179800de1090007e109000808f5000e3
:1053d0000b003d008e80e8005e10900000804000d1
:1053e000e70040005e1090001e00400090487800ea
:1053f0005e1090000000e80050179800f1ff3700a1
:105400008e80e8007e10900000804000e7004000a1
:1054100030c0b300804878007e109000e800400063
:105420000e80e800d50407000000eb00501798003c
:105430000040eb00406f9800010220008e80400089
:105440005e109000008040007b0407000000e00038
:1054500009003200010220008e8040005e109000a2
:105460000080400010407800406f98005e1090006f
:105470000000e800501798004e689000e34f50007d
:10548000edff3a00000220000e0040003040900086
:105490000000fb00e60040005e109000810f50000d
:1054a000e5ff3500010220008e8040005e10900074
:1054b000808040000040eb0080487800000220001f
:1054c0000e004000604090000000fb000080fa00e9
:1054d000000006003a00fa00000f78001e00780075
:1054e0003dec0700401f98004e1890000000e800b7
:1054f000401f98008e80e80020c0b30080487800ec
:105500008e80e80020c5b300904098008e80e800af
:1055100040c0b300a04098008e80e8000e78900054
:105520000040e800b04098008e80e8000040eb00aa
:10553000c04098008e81e8000e80e8008e80e80070
:105540001041900021409000804041000e80e80012
:105550003040900000c04000d04198000e80e8002c
:105560008e789000614098000000eb00201f9800aa
:10557000ae1890004e189000808f50000b003d0038
:105580008e80e8002e18900000804000e700400068
:105590002e1890001e004000904878002e189000b1
:1055a0000000e800201f9800f1ff37008e80e8001f
:1055b0004e18900000804000e700400030c0b3006b
:1055c000804878004e189000e80040000e80e80007
:1055d0006a0407000000eb00201f98000040eb0069
:1055e00060779800a10220008e8040002e18900065
:1055f00000804000100407000000e00009003200b5
:10560000a10220008e8040002e18900000804000f3
:1056100010407800607798002e1890000000e80095
:10562000201f98006e709000e34f5000edff3a008d
:10563000a00220000e004000304090000000fb005f
:10564000e60040002e189000810f5000e5ff350065
:10565000a10220008e8040002e1890008080400023
:105660000040eb0080487800a00220000e004000bf
:10567000604090000000fb000080fa00000006007f
:105680004a00fa00000f78008e80e80020c0b300c6
:10569000804878008e80e80020c5b30090409800d4
:1056a0008e80e8000040eb00a04098008e80e8006b
:1056b00030c0b300b04098008e80e8000040eb009e
:1056c000c04098008e80e80050c5b300d0409800dc
:1056d0008e80e80050c0b300e04098008e80e80063
:1056e000a0c0b300f04098008e80e8000040eb00be
:1056f000804898008e80e80030c0b3009048980041
:105700000e80e800a10020001c0407000000eb0050
:10571000701f98000000eb00102798000000eb00bd
:10572000002798000040eb0040c798000000eb0005
:1057300000279800ec0047000e20900000804000f9
:10574000bd0307000000e00008003200ec00470045
:105750000e209000008040001040780040c7980064
:105760000e2090000000e800002798004ec0900036
:10577000e34f5000efff3a006c00470030409000cc
:105780000000fb00e60040000e209000810f50005a
:10579000e8ff35006c0047009040900090c6b300d1
:1057a00080cf50002c003a000000eb00002798004a
:1057b0000e209000e50f50000f003c00fe189000f6
:1057c000d00120000008b8009e0040000e2090008c
:1057d00000814000ec0047000e2090000080400057
:1057e00066004000104978000e2090000000e8009c
:1057f00000279800eeff37000000eb00002798001c
:105800000e209000e20f500010003c00fe189000a7
:10581000d00120000008b8009e0040000e2090003b
:105820000080400066014000ec0047000e20900020
:10583000008040006c004000104978000e2090006d
:105840000000e80000279800edff37007e18900068
:105850000000e800701f98000000eb00302798005f
:105860006c0047009040900030c4b30080cf5000df
:105870000200320011002000312798000001eb00e7
:10588000422798006c004700204090000004e00090
:10589000020032001000200040279800be20900037
:1058a0004e219000028060000000e0009fff3a005f
:1058b0007e1890000080fa00000006004600fa0002
:1058c000000f78008e80e80020c0b3008048780088
:1058d0008e80e80020c5b300904098008e80e800dc
:1058e00020c0b300a04098008e80e80060c0b300e4
:1058f000b04098008e80e8000040eb00c040980067
:105900008e80e800a0c5b300d04098008e80e800eb
:105910001e00780010407800e04098008e80e8007b
:105920001e00780010409000f04098008e80e80043
:105930001e00780020409000804898008e80e8008b
:105940001e00780030409000904898008e80e8005b
:105950001e00780040409000a04898008e80e8002b
:105960001e00780050409000b04898008e80e800fb
:1059700030c0b300c04898000e80e800d10020007d
:105980007e0307000000eb00102798000040eb00aa
:1059900040c79800f00047001e20900000804000a3
:1059a000250307000000e00008003200f000470077
:1059b0001e209000008040001040780040c79800f2
:1059c0001e2090000000e800102798004ec09000b4
:1059d000e34f5000efff3a00700047003040900066
:1059e0000000fb00e60040001e209000810f5000e8
:1059f000e8ff3500f00047001e2090008080400046
:105a00000040eb0080487800700047006040900044
:105a10000004e00015003a000000eb001027980099
:105a200070004700504890008000fb001e2090004e
:105a3000810f50000d003d009e0078001e20900058
:105a40000080400069014000f00047001e209000e7
:105a5000008040006e004000104978001e20900039
:105a60000000e80010279800edff370070004700a5
:105a7000604090000000fb000080fa00000006007b
:105a80004c00fa00000f78008e80e80020c0b300c0
:105a9000804878008e80e80020c5b30090409800d0
:105aa0008e80e800a0c0b300a04098008e80e8007f
:105ab00080c0b300b04098008e80e8000040eb004a
:105ac000c04098008e80e80040c6b300d0409800e7
:105ad0008e80e80010c0b300e04098008e80e8009f
:105ae0001e00780010407800f04098008e80e8009a
:105af0001e00e80010407800804898008e80e80082
:105b00001e80e80010407800904898008e80e800e1
:105b10001e0178006300410010407800a048980002
:105b20008e80e8001e01780064004100104078007b
:105b3000b04898008e80e8001e01780065004100a2
:105b400010407800c04898008e80e80010c0b30074
:105b5000d04898008e80e80030c0b300e04898003c
:105b60000e80e800f1002000040307000000eb00b5
:105b7000202798000040eb0060c798000000eb0071
:105b800020279800f20047002e209000008040005f
:105b9000a90207000000e00008003200f200470000
:105ba0002e209000008040001040780060c79800d0
:105bb0002e2090000000e800202798006ec0900082
:105bc000e34f5000efff3a00720047003040900072
:105bd0000000fb00e60040002e209000810f5000e6
:105be000e8ff35000000eb004027980072004700f6
:105bf000a040900090c6b30080cf50000200320059
:105c000011002000412798000001eb005227980066
:105c10007200470020409000eb4f5000020032001d
:105c20001000200050279800ce2090005e219000a8
:105c3000028060000000e000d0ff3a0072004700e0
:105c4000604090000000fb000080fa0000000600a9
:105c50002000fa0020c0b300004f780020c5b30038
:105c600010479800d0c0b3002047980010c0b30080
:105c7000304798000040eb004047980000c6b30052
:105c80005047980010c0b3006047980030c0b30080
:105c900070479800810020000e007800b7020700ce
:105ca0000000eb00100f98000040eb0040579800f8
:105cb000e80047001e089000008040005e020700d8
:105cc0000000e00008003200e80047001e089000d5
